{
  "contractName": "CreditTransfer",
  "abi": [
    {
      "inputs": [],
      "stateMutability": "nonpayable",
      "type": "constructor"
    },
    {
      "anonymous": false,
      "inputs": [
        {
          "indexed": false,
          "internalType": "uint256",
          "name": "semesterNumber",
          "type": "uint256"
        },
        {
          "indexed": true,
          "internalType": "address",
          "name": "student",
          "type": "address"
        }
      ],
      "name": "AdminApproval",
      "type": "event"
    },
    {
      "anonymous": false,
      "inputs": [
        {
          "indexed": true,
          "internalType": "address",
          "name": "institute",
          "type": "address"
        },
        {
          "indexed": true,
          "internalType": "address",
          "name": "student",
          "type": "address"
        },
        {
          "indexed": false,
          "internalType": "uint256",
          "name": "semesterNumber",
          "type": "uint256"
        },
        {
          "indexed": false,
          "internalType": "string",
          "name": "content",
          "type": "string"
        }
      ],
      "name": "MarksheetSubmitted",
      "type": "event"
    },
    {
      "anonymous": false,
      "inputs": [
        {
          "indexed": true,
          "internalType": "address",
          "name": "student",
          "type": "address"
        },
        {
          "indexed": false,
          "internalType": "uint256",
          "name": "semesterNumber",
          "type": "uint256"
        },
        {
          "indexed": false,
          "internalType": "uint256",
          "name": "completionTimestamp",
          "type": "uint256"
        },
        {
          "indexed": false,
          "internalType": "bool",
          "name": "verified",
          "type": "bool"
        }
      ],
      "name": "SemesterCompleted",
      "type": "event"
    },
    {
      "anonymous": false,
      "inputs": [
        {
          "indexed": true,
          "internalType": "address",
          "name": "institute",
          "type": "address"
        },
        {
          "indexed": true,
          "internalType": "address",
          "name": "thirdParty",
          "type": "address"
        }
      ],
      "name": "ThirdPartyVerified",
      "type": "event"
    },
    {
      "anonymous": false,
      "inputs": [
        {
          "indexed": true,
          "internalType": "address",
          "name": "student",
          "type": "address"
        },
        {
          "indexed": false,
          "internalType": "uint256",
          "name": "credits",
          "type": "uint256"
        }
      ],
      "name": "TransferCredits",
      "type": "event"
    },
    {
      "inputs": [
        {
          "internalType": "uint256",
          "name": "",
          "type": "uint256"
        }
      ],
      "name": "instituteAddresses",
      "outputs": [
        {
          "internalType": "address",
          "name": "",
          "type": "address"
        }
      ],
      "stateMutability": "view",
      "type": "function",
      "constant": true
    },
    {
      "inputs": [
        {
          "internalType": "address",
          "name": "",
          "type": "address"
        }
      ],
      "name": "institutes",
      "outputs": [
        {
          "internalType": "string",
          "name": "name",
          "type": "string"
        },
        {
          "internalType": "string",
          "name": "location",
          "type": "string"
        },
        {
          "internalType": "address",
          "name": "walletAddress",
          "type": "address"
        },
        {
          "internalType": "string",
          "name": "password",
          "type": "string"
        }
      ],
      "stateMutability": "view",
      "type": "function",
      "constant": true
    },
    {
      "inputs": [
        {
          "internalType": "uint256",
          "name": "",
          "type": "uint256"
        }
      ],
      "name": "markSheets",
      "outputs": [
        {
          "internalType": "address",
          "name": "institute",
          "type": "address"
        },
        {
          "internalType": "address",
          "name": "student",
          "type": "address"
        },
        {
          "internalType": "uint256",
          "name": "semesterNumber",
          "type": "uint256"
        },
        {
          "internalType": "string",
          "name": "content",
          "type": "string"
        },
        {
          "internalType": "bool",
          "name": "creditsGiven",
          "type": "bool"
        }
      ],
      "stateMutability": "view",
      "type": "function",
      "constant": true
    },
    {
      "inputs": [],
      "name": "minCreditsRequiredForTransfer",
      "outputs": [
        {
          "internalType": "uint256",
          "name": "",
          "type": "uint256"
        }
      ],
      "stateMutability": "view",
      "type": "function",
      "constant": true
    },
    {
      "inputs": [],
      "name": "owner",
      "outputs": [
        {
          "internalType": "address",
          "name": "",
          "type": "address"
        }
      ],
      "stateMutability": "view",
      "type": "function",
      "constant": true
    },
    {
      "inputs": [
        {
          "internalType": "address",
          "name": "",
          "type": "address"
        }
      ],
      "name": "studentABCIds",
      "outputs": [
        {
          "internalType": "string",
          "name": "",
          "type": "string"
        }
      ],
      "stateMutability": "view",
      "type": "function",
      "constant": true
    },
    {
      "inputs": [
        {
          "internalType": "uint256",
          "name": "",
          "type": "uint256"
        }
      ],
      "name": "studentAddresses",
      "outputs": [
        {
          "internalType": "address",
          "name": "",
          "type": "address"
        }
      ],
      "stateMutability": "view",
      "type": "function",
      "constant": true
    },
    {
      "inputs": [
        {
          "internalType": "address",
          "name": "",
          "type": "address"
        }
      ],
      "name": "studentCredits",
      "outputs": [
        {
          "internalType": "uint256",
          "name": "",
          "type": "uint256"
        }
      ],
      "stateMutability": "view",
      "type": "function",
      "constant": true
    },
    {
      "inputs": [
        {
          "internalType": "address",
          "name": "",
          "type": "address"
        }
      ],
      "name": "studentInstitute",
      "outputs": [
        {
          "internalType": "address",
          "name": "",
          "type": "address"
        }
      ],
      "stateMutability": "view",
      "type": "function",
      "constant": true
    },
    {
      "inputs": [
        {
          "internalType": "address",
          "name": "",
          "type": "address"
        }
      ],
      "name": "students",
      "outputs": [
        {
          "internalType": "string",
          "name": "name",
          "type": "string"
        },
        {
          "internalType": "uint256",
          "name": "age",
          "type": "uint256"
        },
        {
          "internalType": "string",
          "name": "email",
          "type": "string"
        },
        {
          "internalType": "address",
          "name": "walletAddress",
          "type": "address"
        },
        {
          "internalType": "string",
          "name": "abcId",
          "type": "string"
        },
        {
          "internalType": "string",
          "name": "password",
          "type": "string"
        }
      ],
      "stateMutability": "view",
      "type": "function",
      "constant": true
    },
    {
      "inputs": [
        {
          "internalType": "uint256",
          "name": "_minCredits",
          "type": "uint256"
        }
      ],
      "name": "setMinCreditsRequiredForTransfer",
      "outputs": [],
      "stateMutability": "nonpayable",
      "type": "function"
    },
    {
      "inputs": [
        {
          "internalType": "address",
          "name": "_student",
          "type": "address"
        },
        {
          "internalType": "string",
          "name": "_name",
          "type": "string"
        },
        {
          "internalType": "uint256",
          "name": "_age",
          "type": "uint256"
        },
        {
          "internalType": "string",
          "name": "_email",
          "type": "string"
        },
        {
          "internalType": "string",
          "name": "_abcId",
          "type": "string"
        },
        {
          "internalType": "string",
          "name": "_password",
          "type": "string"
        }
      ],
      "name": "setStudentDetails",
      "outputs": [],
      "stateMutability": "nonpayable",
      "type": "function"
    },
    {
      "inputs": [
        {
          "internalType": "address",
          "name": "_institute",
          "type": "address"
        },
        {
          "internalType": "string",
          "name": "_name",
          "type": "string"
        },
        {
          "internalType": "string",
          "name": "_location",
          "type": "string"
        },
        {
          "internalType": "string",
          "name": "_password",
          "type": "string"
        }
      ],
      "name": "setInstituteDetails",
      "outputs": [],
      "stateMutability": "nonpayable",
      "type": "function"
    },
    {
      "inputs": [],
      "name": "getInstituteCount",
      "outputs": [
        {
          "internalType": "uint256",
          "name": "",
          "type": "uint256"
        }
      ],
      "stateMutability": "view",
      "type": "function",
      "constant": true
    },
    {
      "inputs": [],
      "name": "getInstituteAddresses",
      "outputs": [
        {
          "internalType": "address[]",
          "name": "",
          "type": "address[]"
        }
      ],
      "stateMutability": "view",
      "type": "function",
      "constant": true
    },
    {
      "inputs": [],
      "name": "getStudentAddresses",
      "outputs": [
        {
          "internalType": "address[]",
          "name": "",
          "type": "address[]"
        }
      ],
      "stateMutability": "view",
      "type": "function",
      "constant": true
    },
    {
      "inputs": [
        {
          "internalType": "address",
          "name": "_institute",
          "type": "address"
        },
        {
          "internalType": "address",
          "name": "_student",
          "type": "address"
        }
      ],
      "name": "enrollStudent",
      "outputs": [],
      "stateMutability": "nonpayable",
      "type": "function"
    },
    {
      "inputs": [
        {
          "internalType": "address",
          "name": "_institute",
          "type": "address"
        }
      ],
      "name": "getEnrolledStudents",
      "outputs": [
        {
          "internalType": "address[]",
          "name": "",
          "type": "address[]"
        }
      ],
      "stateMutability": "view",
      "type": "function",
      "constant": true
    },
    {
      "inputs": [
        {
          "internalType": "address",
          "name": "_institute",
          "type": "address"
        },
        {
          "internalType": "address",
          "name": "_thirdParty",
          "type": "address"
        }
      ],
      "name": "addVerifiedThirdParty",
      "outputs": [],
      "stateMutability": "nonpayable",
      "type": "function"
    },
    {
      "inputs": [
        {
          "internalType": "address",
          "name": "_student",
          "type": "address"
        },
        {
          "internalType": "uint256",
          "name": "_credits",
          "type": "uint256"
        }
      ],
      "name": "giveCredits",
      "outputs": [],
      "stateMutability": "nonpayable",
      "type": "function"
    },
    {
      "inputs": [
        {
          "internalType": "address",
          "name": "newOwner",
          "type": "address"
        }
      ],
      "name": "transferOwnership",
      "outputs": [],
      "stateMutability": "nonpayable",
      "type": "function"
    },
    {
      "inputs": [
        {
          "internalType": "uint256",
          "name": "_semesterNumber",
          "type": "uint256"
        },
        {
          "internalType": "string",
          "name": "_content",
          "type": "string"
        },
        {
          "internalType": "address",
          "name": "_student",
          "type": "address"
        }
      ],
      "name": "submitMarksheet",
      "outputs": [],
      "stateMutability": "nonpayable",
      "type": "function"
    },
    {
      "inputs": [
        {
          "internalType": "uint256",
          "name": "_semesterNumber",
          "type": "uint256"
        }
      ],
      "name": "getMarksheet",
      "outputs": [
        {
          "internalType": "address",
          "name": "",
          "type": "address"
        },
        {
          "internalType": "address",
          "name": "",
          "type": "address"
        },
        {
          "internalType": "string",
          "name": "",
          "type": "string"
        },
        {
          "internalType": "bool",
          "name": "",
          "type": "bool"
        }
      ],
      "stateMutability": "view",
      "type": "function",
      "constant": true
    },
    {
      "inputs": [
        {
          "internalType": "uint256",
          "name": "_semesterNumber",
          "type": "uint256"
        }
      ],
      "name": "creditsGivenForMarksheet",
      "outputs": [
        {
          "internalType": "bool",
          "name": "",
          "type": "bool"
        }
      ],
      "stateMutability": "view",
      "type": "function",
      "constant": true
    },
    {
      "inputs": [
        {
          "internalType": "address",
          "name": "_newInstitute",
          "type": "address"
        }
      ],
      "name": "transferInstitute",
      "outputs": [],
      "stateMutability": "nonpayable",
      "type": "function"
    },
    {
      "inputs": [
        {
          "internalType": "address",
          "name": "_student",
          "type": "address"
        }
      ],
      "name": "getTotalCredits",
      "outputs": [
        {
          "internalType": "uint256",
          "name": "",
          "type": "uint256"
        }
      ],
      "stateMutability": "view",
      "type": "function",
      "constant": true
    },
    {
      "inputs": [
        {
          "internalType": "address",
          "name": "_student",
          "type": "address"
        },
        {
          "internalType": "string",
          "name": "_password",
          "type": "string"
        }
      ],
      "name": "studentLogin",
      "outputs": [
        {
          "internalType": "bool",
          "name": "",
          "type": "bool"
        }
      ],
      "stateMutability": "view",
      "type": "function",
      "constant": true
    },
    {
      "inputs": [
        {
          "internalType": "address",
          "name": "_institute",
          "type": "address"
        },
        {
          "internalType": "string",
          "name": "_password",
          "type": "string"
        }
      ],
      "name": "instituteLogin",
      "outputs": [
        {
          "internalType": "bool",
          "name": "",
          "type": "bool"
        }
      ],
      "stateMutability": "view",
      "type": "function",
      "constant": true
    }
  ],
  "bytecode": "0x6080604052603c60065534801561001557600080fd5b5033600960006101000a81548173ffffffffffffffffffffffffffffffffffffffff021916908373ffffffffffffffffffffffffffffffffffffffff16021790555061361f806100666000396000f3fe608060405234801561001057600080fd5b50600436106101c45760003560e01c8063852b86f6116100f9578063b5ab682d11610097578063c7b0508f11610071578063c7b0508f14610586578063cf704dad146105b6578063f0e7b7f5146105d2578063f2fde38b146105ee576101c4565b8063b5ab682d1461051c578063beeab6ea1461054c578063c4674cf214610568576101c4565b80638ee368e6116100d35780638ee368e6146104935780639080dbcb146104af578063a51a18f4146104cb578063a6c807a9146104e7576101c4565b8063852b86f614610412578063861c170f146104425780638da5cb5b14610475576101c4565b8063463f2c211161016657806356c31f5a1161014057806356c31f5a1461036157806360e7bb0d1461039157806375a6b167146103af5780637e0e46b7146103df576101c4565b8063463f2c21146102e15780634e863f44146102fd578063567d81e01461032d576101c4565b806326ddbf24116101a257806326ddbf24146102475780632be9b16714610263578063347979b41461028157806336fdc8ea146102b1576101c4565b80631b8c3d5b146101c95780631cd1451d146101f9578063240d550014610217575b600080fd5b6101e360048036038101906101de91906123d8565b61060a565b6040516101f09190612446565b60405180910390f35b610201610649565b60405161020e9190612470565b60405180910390f35b610231600480360381019061022c91906124b7565b61064f565b60405161023e9190612446565b60405180910390f35b610261600480360381019061025c919061262a565b610682565b005b61026b610952565b6040516102789190612757565b60405180910390f35b61029b600480360381019061029691906124b7565b6109e0565b6040516102a89190612470565b60405180910390f35b6102cb60048036038101906102c69190612779565b6109f8565b6040516102d891906127f0565b60405180910390f35b6102fb60048036038101906102f6919061280b565b610a92565b005b610317600480360381019061031291906124b7565b610c0d565b60405161032491906128ca565b60405180910390f35b610347600480360381019061034291906123d8565b610cad565b6040516103589594939291906128ec565b60405180910390f35b61037b600480360381019061037691906124b7565b610db8565b6040516103889190612470565b60405180910390f35b610399610e01565b6040516103a69190612470565b60405180910390f35b6103c960048036038101906103c491906123d8565b610e0e565b6040516103d691906127f0565b60405180910390f35b6103f960048036038101906103f491906124b7565b610fa1565b6040516104099493929190612946565b60405180910390f35b61042c60048036038101906104279190612779565b611189565b60405161043991906127f0565b60405180910390f35b61045c600480360381019061045791906123d8565b611222565b60405161046c94939291906129a0565b60405180910390f35b61047d6113d1565b60405161048a9190612446565b60405180910390f35b6104ad60048036038101906104a891906124b7565b6113f7565b005b6104c960048036038101906104c491906129ec565b611679565b005b6104e560048036038101906104e09190612a2c565b611874565b005b61050160048036038101906104fc91906124b7565b611a0d565b60405161051396959493929190612b29565b60405180910390f35b610536600480360381019061053191906123d8565b611c89565b6040516105439190612446565b60405180910390f35b610566600480360381019061056191906123d8565b611cc8565b005b610570611cd2565b60405161057d9190612757565b60405180910390f35b6105a0600480360381019061059b91906124b7565b611d60565b6040516105ad9190612757565b60405180910390f35b6105d060048036038101906105cb91906129ec565b611e35565b005b6105ec60048036038101906105e79190612ba6565b6120c5565b005b610608600480360381019061060391906124b7565b6122ba565b005b6007818154811061061a57600080fd5b906000526020600020016000915054906101000a900473ffffffffffffffffffffffffffffffffffffffff1681565b60065481565b60026020528060005260406000206000915054906101000a900473ffffffffffffffffffffffffffffffffffffffff1681565b60003390506000600260008473ffffffffffffffffffffffffffffffffffffffff1673ffffffffffffffffffffffffffffffffffffffff16815260200190815260200160002060009054906101000a900473ffffffffffffffffffffffffffffffffffffffff1690508073ffffffffffffffffffffffffffffffffffffffff168273ffffffffffffffffffffffffffffffffffffffff1614610759576040517f08c379a000000000000000000000000000000000000000000000000000000000815260040161075090612cd3565b60405180910390fd5b6001851015801561076b575060088511155b6107aa576040517f08c379a00000000000000000000000000000000000000000000000000000000081526004016107a190612d3f565b60405180910390fd5b6040518060a001604052808373ffffffffffffffffffffffffffffffffffffffff1681526020018473ffffffffffffffffffffffffffffffffffffffff168152602001868152602001858152602001600015158152506005600087815260200190815260200160002060008201518160000160006101000a81548173ffffffffffffffffffffffffffffffffffffffff021916908373ffffffffffffffffffffffffffffffffffffffff16021790555060208201518160010160006101000a81548173ffffffffffffffffffffffffffffffffffffffff021916908373ffffffffffffffffffffffffffffffffffffffff1602179055506040820151816002015560608201518160030190816108c09190612f6b565b5060808201518160040160006101000a81548160ff0219169083151502179055509050508273ffffffffffffffffffffffffffffffffffffffff168273ffffffffffffffffffffffffffffffffffffffff167ffe0f45d9cef40d9fe18bd4aeb81837ec459ba1812800f517ad44f480435f22e9878760405161094392919061303d565b60405180910390a35050505050565b606060078054806020026020016040519081016040528092919081815260200182805480156109d657602002820191906000526020600020905b8160009054906101000a900473ffffffffffffffffffffffffffffffffffffffff1673ffffffffffffffffffffffffffffffffffffffff168152602001906001019080831161098c575b5050505050905090565b60046020528060005260406000206000915090505481565b600081604051602001610a0b91906130a9565b60405160208183030381529060405280519060200120600160008573ffffffffffffffffffffffffffffffffffffffff1673ffffffffffffffffffffffffffffffffffffffff168152602001908152602001600020600501604051602001610a739190613143565b6040516020818303038152906040528051906020012014905092915050565b600960009054906101000a900473ffffffffffffffffffffffffffffffffffffffff1673ffffffffffffffffffffffffffffffffffffffff163373ffffffffffffffffffffffffffffffffffffffff1614610b22576040517f08c379a0000000000000000000000000000000000000000000000000000000008152600401610b19906131cc565b60405180910390fd5b60008111610b65576040517f08c379a0000000000000000000000000000000000000000000000000000000008152600401610b5c90613238565b60405180910390fd5b80600460008473ffffffffffffffffffffffffffffffffffffffff1673ffffffffffffffffffffffffffffffffffffffff1681526020019081526020016000206000828254610bb49190613287565b925050819055508173ffffffffffffffffffffffffffffffffffffffff167fe2362b716dfc80ccebb96675d8b9d930e9481b02dac7f0a4af5f1f77f05511f382604051610c019190612470565b60405180910390a25050565b60036020528060005260406000206000915090508054610c2c90612d8e565b80601f0160208091040260200160405190810160405280929190818152602001828054610c5890612d8e565b8015610ca55780601f10610c7a57610100808354040283529160200191610ca5565b820191906000526020600020905b815481529060010190602001808311610c8857829003601f168201915b505050505081565b60056020528060005260406000206000915090508060000160009054906101000a900473ffffffffffffffffffffffffffffffffffffffff16908060010160009054906101000a900473ffffffffffffffffffffffffffffffffffffffff1690806002015490806003018054610d2290612d8e565b80601f0160208091040260200160405190810160405280929190818152602001828054610d4e90612d8e565b8015610d9b5780601f10610d7057610100808354040283529160200191610d9b565b820191906000526020600020905b815481529060010190602001808311610d7e57829003601f168201915b5050505050908060040160009054906101000a900460ff16905085565b6000600460008373ffffffffffffffffffffffffffffffffffffffff1673ffffffffffffffffffffffffffffffffffffffff168152602001908152602001600020549050919050565b6000600780549050905090565b600080600560008481526020019081526020016000206040518060a00160405290816000820160009054906101000a900473ffffffffffffffffffffffffffffffffffffffff1673ffffffffffffffffffffffffffffffffffffffff1673ffffffffffffffffffffffffffffffffffffffff1681526020016001820160009054906101000a900473ffffffffffffffffffffffffffffffffffffffff1673ffffffffffffffffffffffffffffffffffffffff1673ffffffffffffffffffffffffffffffffffffffff16815260200160028201548152602001600382018054610ef590612d8e565b80601f0160208091040260200160405190810160405280929190818152602001828054610f2190612d8e565b8015610f6e5780601f10610f4357610100808354040283529160200191610f6e565b820191906000526020600020905b815481529060010190602001808311610f5157829003601f168201915b505050505081526020016004820160009054906101000a900460ff16151515158152505090508060800151915050919050565b6000602052806000526040600020600091509050806000018054610fc490612d8e565b80601f0160208091040260200160405190810160405280929190818152602001828054610ff090612d8e565b801561103d5780601f106110125761010080835404028352916020019161103d565b820191906000526020600020905b81548152906001019060200180831161102057829003601f168201915b50505050509080600101805461105290612d8e565b80601f016020809104026020016040519081016040528092919081815260200182805461107e90612d8e565b80156110cb5780601f106110a0576101008083540402835291602001916110cb565b820191906000526020600020905b8154815290600101906020018083116110ae57829003601f168201915b5050505050908060020160009054906101000a900473ffffffffffffffffffffffffffffffffffffffff169080600501805461110690612d8e565b80601f016020809104026020016040519081016040528092919081815260200182805461113290612d8e565b801561117f5780601f106111545761010080835404028352916020019161117f565b820191906000526020600020905b81548152906001019060200180831161116257829003601f168201915b5050505050905084565b60008160405160200161119c91906130a9565b604051602081830303815290604052805190602001206000808573ffffffffffffffffffffffffffffffffffffffff1673ffffffffffffffffffffffffffffffffffffffff1681526020019081526020016000206005016040516020016112039190613143565b6040516020818303038152906040528051906020012014905092915050565b6000806060600080600560008781526020019081526020016000206040518060a00160405290816000820160009054906101000a900473ffffffffffffffffffffffffffffffffffffffff1673ffffffffffffffffffffffffffffffffffffffff1673ffffffffffffffffffffffffffffffffffffffff1681526020016001820160009054906101000a900473ffffffffffffffffffffffffffffffffffffffff1673ffffffffffffffffffffffffffffffffffffffff1673ffffffffffffffffffffffffffffffffffffffff1681526020016002820154815260200160038201805461130e90612d8e565b80601f016020809104026020016040519081016040528092919081815260200182805461133a90612d8e565b80156113875780601f1061135c57610100808354040283529160200191611387565b820191906000526020600020905b81548152906001019060200180831161136a57829003601f168201915b505050505081526020016004820160009054906101000a900460ff161515151581525050905080600001518160200151826060015183608001519450945094509450509193509193565b600960009054906101000a900473ffffffffffffffffffffffffffffffffffffffff1681565b60003390506000600460008373ffffffffffffffffffffffffffffffffffffffff1673ffffffffffffffffffffffffffffffffffffffff168152602001908152602001600020549050600654811015611485576040517f08c379a000000000000000000000000000000000000000000000000000000000815260040161147c9061332d565b60405180910390fd5b8273ffffffffffffffffffffffffffffffffffffffff16600260008473ffffffffffffffffffffffffffffffffffffffff1673ffffffffffffffffffffffffffffffffffffffff16815260200190815260200160002060009054906101000a900473ffffffffffffffffffffffffffffffffffffffff1673ffffffffffffffffffffffffffffffffffffffff1603611552576040517f08c379a0000000000000000000000000000000000000000000000000000000008152600401611549906133bf565b60405180910390fd5b82600260008473ffffffffffffffffffffffffffffffffffffffff1673ffffffffffffffffffffffffffffffffffffffff16815260200190815260200160002060006101000a81548173ffffffffffffffffffffffffffffffffffffffff021916908373ffffffffffffffffffffffffffffffffffffffff16021790555080600460008473ffffffffffffffffffffffffffffffffffffffff1673ffffffffffffffffffffffffffffffffffffffff168152602001908152602001600020600082825461161f91906133df565b925050819055508173ffffffffffffffffffffffffffffffffffffffff167fe2362b716dfc80ccebb96675d8b9d930e9481b02dac7f0a4af5f1f77f05511f38260405161166c9190612470565b60405180910390a2505050565b600073ffffffffffffffffffffffffffffffffffffffff16600160008373ffffffffffffffffffffffffffffffffffffffff1673ffffffffffffffffffffffffffffffffffffffff16815260200190815260200160002060030160009054906101000a900473ffffffffffffffffffffffffffffffffffffffff1673ffffffffffffffffffffffffffffffffffffffff160361174a576040517f08c379a00000000000000000000000000000000000000000000000000000000081526004016117419061345f565b60405180910390fd5b60008060008473ffffffffffffffffffffffffffffffffffffffff1673ffffffffffffffffffffffffffffffffffffffff168152602001908152602001600020905080600401829080600181540180825580915050600190039060005260206000200160009091909190916101000a81548173ffffffffffffffffffffffffffffffffffffffff021916908373ffffffffffffffffffffffffffffffffffffffff16021790555082600260008473ffffffffffffffffffffffffffffffffffffffff1673ffffffffffffffffffffffffffffffffffffffff16815260200190815260200160002060006101000a81548173ffffffffffffffffffffffffffffffffffffffff021916908373ffffffffffffffffffffffffffffffffffffffff160217905550505050565b6040518060c001604052808681526020018581526020018481526020018773ffffffffffffffffffffffffffffffffffffffff16815260200183815260200182815250600160008873ffffffffffffffffffffffffffffffffffffffff1673ffffffffffffffffffffffffffffffffffffffff168152602001908152602001600020600082015181600001908161190b9190612f6b565b5060208201518160010155604082015181600201908161192b9190612f6b565b5060608201518160030160006101000a81548173ffffffffffffffffffffffffffffffffffffffff021916908373ffffffffffffffffffffffffffffffffffffffff16021790555060808201518160040190816119889190612f6b565b5060a082015181600501908161199e9190612f6b565b509050506008869080600181540180825580915050600190039060005260206000200160009091909190916101000a81548173ffffffffffffffffffffffffffffffffffffffff021916908373ffffffffffffffffffffffffffffffffffffffff160217905550505050505050565b6001602052806000526040600020600091509050806000018054611a3090612d8e565b80601f0160208091040260200160405190810160405280929190818152602001828054611a5c90612d8e565b8015611aa95780601f10611a7e57610100808354040283529160200191611aa9565b820191906000526020600020905b815481529060010190602001808311611a8c57829003601f168201915b505050505090806001015490806002018054611ac490612d8e565b80601f0160208091040260200160405190810160405280929190818152602001828054611af090612d8e565b8015611b3d5780601f10611b1257610100808354040283529160200191611b3d565b820191906000526020600020905b815481529060010190602001808311611b2057829003601f168201915b5050505050908060030160009054906101000a900473ffffffffffffffffffffffffffffffffffffffff1690806004018054611b7890612d8e565b80601f0160208091040260200160405190810160405280929190818152602001828054611ba490612d8e565b8015611bf15780601f10611bc657610100808354040283529160200191611bf1565b820191906000526020600020905b815481529060010190602001808311611bd457829003601f168201915b505050505090806005018054611c0690612d8e565b80601f0160208091040260200160405190810160405280929190818152602001828054611c3290612d8e565b8015611c7f5780601f10611c5457610100808354040283529160200191611c7f565b820191906000526020600020905b815481529060010190602001808311611c6257829003601f168201915b5050505050905086565b60088181548110611c9957600080fd5b906000526020600020016000915054906101000a900473ffffffffffffffffffffffffffffffffffffffff1681565b8060068190555050565b60606008805480602002602001604051908101604052809291908181526020018280548015611d5657602002820191906000526020600020905b8160009054906101000a900473ffffffffffffffffffffffffffffffffffffffff1673ffffffffffffffffffffffffffffffffffffffff1681526020019060010190808311611d0c575b5050505050905090565b606060008060008473ffffffffffffffffffffffffffffffffffffffff1673ffffffffffffffffffffffffffffffffffffffff168152602001908152602001600020905080600401805480602002602001604051908101604052809291908181526020018280548015611e2857602002820191906000526020600020905b8160009054906101000a900473ffffffffffffffffffffffffffffffffffffffff1673ffffffffffffffffffffffffffffffffffffffff1681526020019060010190808311611dde575b5050505050915050919050565b3373ffffffffffffffffffffffffffffffffffffffff166000808473ffffffffffffffffffffffffffffffffffffffff1673ffffffffffffffffffffffffffffffffffffffff16815260200190815260200160002060020160009054906101000a900473ffffffffffffffffffffffffffffffffffffffff1673ffffffffffffffffffffffffffffffffffffffff1614611f04576040517f08c379a0000000000000000000000000000000000000000000000000000000008152600401611efb906134f1565b60405180910390fd5b6000808373ffffffffffffffffffffffffffffffffffffffff1673ffffffffffffffffffffffffffffffffffffffff16815260200190815260200160002060030160008273ffffffffffffffffffffffffffffffffffffffff1673ffffffffffffffffffffffffffffffffffffffff16815260200190815260200160002060009054906101000a900460ff1615611fd0576040517f08c379a0000000000000000000000000000000000000000000000000000000008152600401611fc79061355d565b60405180910390fd5b60016000808473ffffffffffffffffffffffffffffffffffffffff1673ffffffffffffffffffffffffffffffffffffffff16815260200190815260200160002060030160008373ffffffffffffffffffffffffffffffffffffffff1673ffffffffffffffffffffffffffffffffffffffff16815260200190815260200160002060006101000a81548160ff0219169083151502179055508073ffffffffffffffffffffffffffffffffffffffff168273ffffffffffffffffffffffffffffffffffffffff167fbbab63930789b415a7adbc53f62693ca91f67778c33c2f62735312e75a8f551860405160405180910390a35050565b600073ffffffffffffffffffffffffffffffffffffffff166000808673ffffffffffffffffffffffffffffffffffffffff1673ffffffffffffffffffffffffffffffffffffffff16815260200190815260200160002060020160009054906101000a900473ffffffffffffffffffffffffffffffffffffffff1673ffffffffffffffffffffffffffffffffffffffff1614612195576040517f08c379a000000000000000000000000000000000000000000000000000000000815260040161218c906135c9565b60405180910390fd5b60008060008673ffffffffffffffffffffffffffffffffffffffff1673ffffffffffffffffffffffffffffffffffffffff1681526020019081526020016000209050838160000190816121e89190612f6b565b50828160010190816121fa9190612f6b565b50848160020160006101000a81548173ffffffffffffffffffffffffffffffffffffffff021916908373ffffffffffffffffffffffffffffffffffffffff1602179055508181600501908161224f9190612f6b565b506007859080600181540180825580915050600190039060005260206000200160009091909190916101000a81548173ffffffffffffffffffffffffffffffffffffffff021916908373ffffffffffffffffffffffffffffffffffffffff1602179055505050505050565b600960009054906101000a900473ffffffffffffffffffffffffffffffffffffffff1673ffffffffffffffffffffffffffffffffffffffff163373ffffffffffffffffffffffffffffffffffffffff161461234a576040517f08c379a0000000000000000000000000000000000000000000000000000000008152600401612341906131cc565b60405180910390fd5b80600960006101000a81548173ffffffffffffffffffffffffffffffffffffffff021916908373ffffffffffffffffffffffffffffffffffffffff16021790555050565b6000604051905090565b600080fd5b600080fd5b6000819050919050565b6123b5816123a2565b81146123c057600080fd5b50565b6000813590506123d2816123ac565b92915050565b6000602082840312156123ee576123ed612398565b5b60006123fc848285016123c3565b91505092915050565b600073ffffffffffffffffffffffffffffffffffffffff82169050919050565b600061243082612405565b9050919050565b61244081612425565b82525050565b600060208201905061245b6000830184612437565b92915050565b61246a816123a2565b82525050565b60006020820190506124856000830184612461565b92915050565b61249481612425565b811461249f57600080fd5b50565b6000813590506124b18161248b565b92915050565b6000602082840312156124cd576124cc612398565b5b60006124db848285016124a2565b91505092915050565b600080fd5b600080fd5b6000601f19601f8301169050919050565b7f4e487b7100000000000000000000000000000000000000000000000000000000600052604160045260246000fd5b612537826124ee565b810181811067ffffffffffffffff82111715612556576125556124ff565b5b80604052505050565b600061256961238e565b9050612575828261252e565b919050565b600067ffffffffffffffff821115612595576125946124ff565b5b61259e826124ee565b9050602081019050919050565b82818337600083830152505050565b60006125cd6125c88461257a565b61255f565b9050828152602081018484840111156125e9576125e86124e9565b5b6125f48482856125ab565b509392505050565b600082601f830112612611576126106124e4565b5b81356126218482602086016125ba565b91505092915050565b60008060006060848603121561264357612642612398565b5b6000612651868287016123c3565b935050602084013567ffffffffffffffff8111156126725761267161239d565b5b61267e868287016125fc565b925050604061268f868287016124a2565b9150509250925092565b600081519050919050565b600082825260208201905092915050565b6000819050602082019050919050565b6126ce81612425565b82525050565b60006126e083836126c5565b60208301905092915050565b6000602082019050919050565b600061270482612699565b61270e81856126a4565b9350612719836126b5565b8060005b8381101561274a57815161273188826126d4565b975061273c836126ec565b92505060018101905061271d565b5085935050505092915050565b6000602082019050818103600083015261277181846126f9565b905092915050565b600080604083850312156127905761278f612398565b5b600061279e858286016124a2565b925050602083013567ffffffffffffffff8111156127bf576127be61239d565b5b6127cb858286016125fc565b9150509250929050565b60008115159050919050565b6127ea816127d5565b82525050565b600060208201905061280560008301846127e1565b92915050565b6000806040838503121561282257612821612398565b5b6000612830858286016124a2565b9250506020612841858286016123c3565b9150509250929050565b600081519050919050565b600082825260208201905092915050565b60005b8381101561288557808201518184015260208101905061286a565b60008484015250505050565b600061289c8261284b565b6128a68185612856565b93506128b6818560208601612867565b6128bf816124ee565b840191505092915050565b600060208201905081810360008301526128e48184612891565b905092915050565b600060a0820190506129016000830188612437565b61290e6020830187612437565b61291b6040830186612461565b818103606083015261292d8185612891565b905061293c60808301846127e1565b9695505050505050565b600060808201905081810360008301526129608187612891565b905081810360208301526129748186612891565b90506129836040830185612437565b81810360608301526129958184612891565b905095945050505050565b60006080820190506129b56000830187612437565b6129c26020830186612437565b81810360408301526129d48185612891565b90506129e360608301846127e1565b95945050505050565b60008060408385031215612a0357612a02612398565b5b6000612a11858286016124a2565b9250506020612a22858286016124a2565b9150509250929050565b60008060008060008060c08789031215612a4957612a48612398565b5b6000612a5789828a016124a2565b965050602087013567ffffffffffffffff811115612a7857612a7761239d565b5b612a8489828a016125fc565b9550506040612a9589828a016123c3565b945050606087013567ffffffffffffffff811115612ab657612ab561239d565b5b612ac289828a016125fc565b935050608087013567ffffffffffffffff811115612ae357612ae261239d565b5b612aef89828a016125fc565b92505060a087013567ffffffffffffffff811115612b1057612b0f61239d565b5b612b1c89828a016125fc565b9150509295509295509295565b600060c0820190508181036000830152612b438189612891565b9050612b526020830188612461565b8181036040830152612b648187612891565b9050612b736060830186612437565b8181036080830152612b858185612891565b905081810360a0830152612b998184612891565b9050979650505050505050565b60008060008060808587031215612bc057612bbf612398565b5b6000612bce878288016124a2565b945050602085013567ffffffffffffffff811115612bef57612bee61239d565b5b612bfb878288016125fc565b935050604085013567ffffffffffffffff811115612c1c57612c1b61239d565b5b612c28878288016125fc565b925050606085013567ffffffffffffffff811115612c4957612c4861239d565b5b612c55878288016125fc565b91505092959194509250565b7f43616c6c6572206973206e6f7420617574686f72697a656420746f207375626d60008201527f6974206d61726b736865657420666f7220746869732073747564656e74000000602082015250565b6000612cbd603d83612856565b9150612cc882612c61565b604082019050919050565b60006020820190508181036000830152612cec81612cb0565b9050919050565b7f496e76616c69642073656d6573746572206e756d626572000000000000000000600082015250565b6000612d29601783612856565b9150612d3482612cf3565b602082019050919050565b60006020820190508181036000830152612d5881612d1c565b9050919050565b7f4e487b7100000000000000000000000000000000000000000000000000000000600052602260045260246000fd5b60006002820490506001821680612da657607f821691505b602082108103612db957612db8612d5f565b5b50919050565b60008190508160005260206000209050919050565b60006020601f8301049050919050565b600082821b905092915050565b600060088302612e217fffffffffffffffffffffffffffffffffffffffffffffffffffffffffffffffff82612de4565b612e2b8683612de4565b95508019841693508086168417925050509392505050565b6000819050919050565b6000612e68612e63612e5e846123a2565b612e43565b6123a2565b9050919050565b6000819050919050565b612e8283612e4d565b612e96612e8e82612e6f565b848454612df1565b825550505050565b600090565b612eab612e9e565b612eb6818484612e79565b505050565b5b81811015612eda57612ecf600082612ea3565b600181019050612ebc565b5050565b601f821115612f1f57612ef081612dbf565b612ef984612dd4565b81016020851015612f08578190505b612f1c612f1485612dd4565b830182612ebb565b50505b505050565b600082821c905092915050565b6000612f4260001984600802612f24565b1980831691505092915050565b6000612f5b8383612f31565b9150826002028217905092915050565b612f748261284b565b67ffffffffffffffff811115612f8d57612f8c6124ff565b5b612f978254612d8e565b612fa2828285612ede565b600060209050601f831160018114612fd55760008415612fc3578287015190505b612fcd8582612f4f565b865550613035565b601f198416612fe386612dbf565b60005b8281101561300b57848901518255600182019150602085019450602081019050612fe6565b868310156130285784890151613024601f891682612f31565b8355505b6001600288020188555050505b505050505050565b60006040820190506130526000830185612461565b81810360208301526130648184612891565b90509392505050565b600081905092915050565b60006130838261284b565b61308d818561306d565b935061309d818560208601612867565b80840191505092915050565b60006130b58284613078565b915081905092915050565b600081546130cd81612d8e565b6130d7818661306d565b945060018216600081146130f257600181146131075761313a565b60ff198316865281151582028601935061313a565b61311085612dbf565b60005b8381101561313257815481890152600182019150602081019050613113565b838801955050505b50505092915050565b600061314f82846130c0565b915081905092915050565b7f4f6e6c7920636f6e7472616374206f776e65722063616e2063616c6c2074686960008201527f732066756e6374696f6e00000000000000000000000000000000000000000000602082015250565b60006131b6602a83612856565b91506131c18261315a565b604082019050919050565b600060208201905081810360008301526131e5816131a9565b9050919050565b7f496e76616c6964206372656469747320616d6f756e7400000000000000000000600082015250565b6000613222601683612856565b915061322d826131ec565b602082019050919050565b6000602082019050818103600083015261325181613215565b9050919050565b7f4e487b7100000000000000000000000000000000000000000000000000000000600052601160045260246000fd5b6000613292826123a2565b915061329d836123a2565b92508282019050808211156132b5576132b4613258565b5b92915050565b7f496e73756666696369656e74206372656469747320666f72207472616e73666560008201527f7200000000000000000000000000000000000000000000000000000000000000602082015250565b6000613317602183612856565b9150613322826132bb565b604082019050919050565b600060208201905081810360008301526133468161330a565b9050919050565b7f416c726561647920656e726f6c6c656420696e20746865206e657720696e737460008201527f6974757465000000000000000000000000000000000000000000000000000000602082015250565b60006133a9602583612856565b91506133b48261334d565b604082019050919050565b600060208201905081810360008301526133d88161339c565b9050919050565b60006133ea826123a2565b91506133f5836123a2565b925082820390508181111561340d5761340c613258565b5b92915050565b7f53747564656e74206e6f74207265676973746572656400000000000000000000600082015250565b6000613449601683612856565b915061345482613413565b602082019050919050565b600060208201905081810360008301526134788161343c565b9050919050565b7f4f6e6c7920696e737469747574652063616e206164642074686972642d70617260008201527f7479000000000000000000000000000000000000000000000000000000000000602082015250565b60006134db602283612856565b91506134e68261347f565b604082019050919050565b6000602082019050818103600083015261350a816134ce565b9050919050565b7f54686972642d706172747920616c726561647920766572696669656400000000600082015250565b6000613547601c83612856565b915061355282613511565b602082019050919050565b600060208201905081810360008301526135768161353a565b9050919050565b7f496e7374697475746520616c7265616479207265676973746572656400000000600082015250565b60006135b3601c83612856565b91506135be8261357d565b602082019050919050565b600060208201905081810360008301526135e2816135a6565b905091905056fea2646970667358221220ce7c13efd73962a5bb446026df7188475aed04c5e62535ae88672aac97112ba464736f6c63430008130033",
  "immutableReferences": {},
  "source": "// SPDX-License-Identifier: MIT\r\npragma solidity ^0.8.0;\r\n\r\ncontract CreditTransfer {\r\n    struct Student {\r\n        string name;\r\n        uint age;\r\n        string email;\r\n        address walletAddress;\r\n        string abcId;\r\n        string password;\r\n    }\r\n\r\n    struct Institute {\r\n        string name;\r\n        string location;\r\n        address walletAddress;\r\n        mapping(address => bool) verifiedThirdParties; // Mapping to store verified third-party addresses\r\n        address[] enrolledStudents; // Array to store enrolled students\r\n        string password;\r\n    }\r\n\r\n    struct Marksheet {\r\n        address institute;\r\n        address student;\r\n        uint semesterNumber;\r\n        string content;\r\n        bool creditsGiven; // New field to track credits\r\n    }\r\n\r\n\r\n    struct SemesterCompletion {\r\n        address student;\r\n        uint semesterNumber;\r\n        uint completionTimestamp;\r\n        bool verified;\r\n    }\r\n\r\n    mapping(address => Institute) public institutes; // Mapping to store Institute details\r\n    mapping(address => Student) public students; // Mapping to store Student details\r\n    mapping(address => address) public studentInstitute; // Mapping to store student's current institute\r\n    mapping(address => string) public studentABCIds; // Mapping to store ABC ID of students\r\n    mapping(address => uint) public studentCredits; // Mapping to store credits for each student\r\n    mapping(uint => Marksheet) public markSheets;\r\n\r\n    event SemesterCompleted(address indexed student, uint semesterNumber, uint completionTimestamp, bool verified);\r\n    event MarksheetSubmitted(address indexed institute, address indexed student, uint semesterNumber, string content);\r\n    event AdminApproval(uint semesterNumber, address indexed student);\r\n    event TransferCredits(address indexed student, uint credits);\r\n    event ThirdPartyVerified(address indexed institute, address indexed thirdParty);\r\n\r\n    uint public minCreditsRequiredForTransfer = 60; // Minimum credits required for transfer\r\n    address[] public instituteAddresses; // Array to store institute addresses\r\n    address[] public studentAddresses;\r\n    address public owner;\r\n\r\n    constructor() {\r\n        owner = msg.sender; // Set the contract creator as the owner\r\n    }\r\n\r\n    modifier onlyOwner() {\r\n        require(msg.sender == owner, \"Only contract owner can call this function\");\r\n        _; // Continue execution if the caller is the owner\r\n    }\r\n\r\n\r\n    function setMinCreditsRequiredForTransfer(uint _minCredits) public {\r\n        minCreditsRequiredForTransfer = _minCredits;\r\n    }\r\n\r\n    function setStudentDetails(address _student, string memory _name, uint _age, string memory _email, string memory _abcId, string memory _password) public {\r\n        students[_student] = Student(_name, _age, _email, _student, _abcId, _password);\r\n        studentAddresses.push(_student);\r\n    }\r\n\r\n    function setInstituteDetails(address _institute, string memory _name, string memory _location, string memory _password) public {\r\n        require(institutes[_institute].walletAddress == address(0), \"Institute already registered\");\r\n\r\n        Institute storage newInstitute = institutes[_institute];\r\n        newInstitute.name = _name;\r\n        newInstitute.location = _location;\r\n        newInstitute.walletAddress = _institute;\r\n        newInstitute.password = _password;\r\n        instituteAddresses.push(_institute); // Add new institute address to array\r\n    }\r\n\r\n    function getInstituteCount() public view returns (uint) {\r\n        return instituteAddresses.length;\r\n    }\r\n\r\n    function getInstituteAddresses() public view returns (address[] memory) {\r\n        return instituteAddresses;\r\n    }\r\n\r\n    function getStudentAddresses() public view returns (address[] memory) {\r\n        return studentAddresses;\r\n    }\r\n\r\n    function enrollStudent(address _institute, address _student) public {\r\n        require(students[_student].walletAddress != address(0), \"Student not registered\");\r\n\r\n        Institute storage institute = institutes[_institute];\r\n        institute.enrolledStudents.push(_student);\r\n        studentInstitute[_student] = _institute;\r\n    }\r\n\r\n    function getEnrolledStudents(address _institute) public view returns (address[] memory) {\r\n        Institute storage institute = institutes[_institute];\r\n        return institute.enrolledStudents;\r\n    }\r\n\r\n    function addVerifiedThirdParty(address _institute, address _thirdParty) public {\r\n        require(institutes[_institute].walletAddress == msg.sender, \"Only institute can add third-party\");\r\n        require(!institutes[_institute].verifiedThirdParties[_thirdParty], \"Third-party already verified\");\r\n\r\n        institutes[_institute].verifiedThirdParties[_thirdParty] = true;\r\n        emit ThirdPartyVerified(_institute, _thirdParty);\r\n    }\r\n\r\n\r\n\r\n    function giveCredits(address _student, uint _credits) public onlyOwner {\r\n        require(_credits > 0, \"Invalid credits amount\");\r\n        studentCredits[_student] += _credits;\r\n        emit TransferCredits(_student, _credits);\r\n    }\r\n\r\n    // Function to transfer ownership (in case needed)\r\n    function transferOwnership(address newOwner) public onlyOwner {\r\n        owner = newOwner;\r\n    }\r\n\r\n\r\n    function getLatestSubmittedSemester(address _student) internal view returns (uint) {\r\n        uint latestSemester = 0;\r\n        for (uint i = 1; i <= 8; i++) {\r\n            if (markSheets[i].student == _student && markSheets[i].institute != address(0)) {\r\n                latestSemester = i;\r\n            }\r\n        }\r\n        return latestSemester;\r\n    }\r\n\r\n    function submitMarksheet(uint _semesterNumber, string memory _content, address _student) public {\r\n        address instituteAddress = msg.sender;\r\n        address enrolledInstitute = studentInstitute[_student];\r\n\r\n        require(instituteAddress == enrolledInstitute, \"Caller is not authorized to submit marksheet for this student\");\r\n        require(_semesterNumber >= 1 && _semesterNumber <= 8, \"Invalid semester number\");\r\n\r\n        markSheets[_semesterNumber] = Marksheet(instituteAddress, _student, _semesterNumber, _content, false);\r\n\r\n        emit MarksheetSubmitted(instituteAddress, _student, _semesterNumber, _content);\r\n    }\r\n\r\n    function getMarksheet(uint _semesterNumber) public view returns (address, address, string memory, bool) {\r\n        Marksheet memory marksheet = markSheets[_semesterNumber];\r\n\r\n        return (marksheet.institute, marksheet.student, marksheet.content, marksheet.creditsGiven);\r\n    }\r\n\r\n    function creditsGivenForMarksheet(uint _semesterNumber) public view returns (bool) {\r\n        Marksheet memory marksheet = markSheets[_semesterNumber];\r\n\r\n        return marksheet.creditsGiven;\r\n    }\r\n\r\n\r\n    function transferInstitute(address _newInstitute) public {\r\n        address studentAddress = msg.sender;\r\n        uint totalCredits = studentCredits[studentAddress];\r\n        \r\n        require(totalCredits >= minCreditsRequiredForTransfer, \"Insufficient credits for transfer\");\r\n        require(studentInstitute[studentAddress] != _newInstitute, \"Already enrolled in the new institute\");\r\n\r\n        studentInstitute[studentAddress] = _newInstitute;\r\n\r\n        studentCredits[studentAddress] -= totalCredits; // Deduct credits upon transfer\r\n        emit TransferCredits(studentAddress, totalCredits); // Emit an event indicating the transfer of credits\r\n    }\r\n\r\n    function getTotalCredits(address _student) public view returns (uint) {\r\n        return studentCredits[_student];\r\n    }\r\n\r\n    function studentLogin(address _student, string memory _password) public view returns (bool) {\r\n        return keccak256(abi.encodePacked(students[_student].password)) == keccak256(abi.encodePacked(_password));\r\n    }\r\n\r\n    function instituteLogin(address _institute, string memory _password) public view returns (bool) {\r\n        return keccak256(abi.encodePacked(institutes[_institute].password)) == keccak256(abi.encodePacked(_password));\r\n    }\r\n}\r\n",
  "sourcePath": "C:\\Users\\adity\\Desktop\\Coding\\Major Project\\contracts\\CreditTransfer.sol",
  "compiler": {
    "name": "solc",
    "version": "0.8.19+commit.7dd6d404.Emscripten.clang"
  },
  "schemaVersion": "3.4.16",
  "updatedAt": "2024-05-04T04:11:18.075Z",
  "networkType": "ethereum",
  "devdoc": {
    "kind": "dev",
    "methods": {},
    "version": 1
  },
  "userdoc": {
    "kind": "user",
    "methods": {},
    "version": 1
  }
}