{
  "contractName": "CreditTransfer",
  "abi": [
    {
      "anonymous": false,
      "inputs": [
        {
          "indexed": false,
          "internalType": "uint256",
          "name": "semesterNumber",
          "type": "uint256"
        },
        {
          "indexed": true,
          "internalType": "address",
          "name": "student",
          "type": "address"
        }
      ],
      "name": "AdminApproval",
      "type": "event"
    },
    {
      "anonymous": false,
      "inputs": [
        {
          "indexed": true,
          "internalType": "address",
          "name": "institute",
          "type": "address"
        },
        {
          "indexed": true,
          "internalType": "address",
          "name": "student",
          "type": "address"
        },
        {
          "indexed": false,
          "internalType": "uint256",
          "name": "semesterNumber",
          "type": "uint256"
        },
        {
          "indexed": false,
          "internalType": "string",
          "name": "content",
          "type": "string"
        }
      ],
      "name": "MarksheetSubmitted",
      "type": "event"
    },
    {
      "anonymous": false,
      "inputs": [
        {
          "indexed": true,
          "internalType": "address",
          "name": "student",
          "type": "address"
        },
        {
          "indexed": false,
          "internalType": "uint256",
          "name": "semesterNumber",
          "type": "uint256"
        },
        {
          "indexed": false,
          "internalType": "uint256",
          "name": "completionTimestamp",
          "type": "uint256"
        },
        {
          "indexed": false,
          "internalType": "bool",
          "name": "verified",
          "type": "bool"
        }
      ],
      "name": "SemesterCompleted",
      "type": "event"
    },
    {
      "anonymous": false,
      "inputs": [
        {
          "indexed": true,
          "internalType": "address",
          "name": "institute",
          "type": "address"
        },
        {
          "indexed": true,
          "internalType": "address",
          "name": "thirdParty",
          "type": "address"
        }
      ],
      "name": "ThirdPartyVerified",
      "type": "event"
    },
    {
      "anonymous": false,
      "inputs": [
        {
          "indexed": true,
          "internalType": "address",
          "name": "student",
          "type": "address"
        },
        {
          "indexed": false,
          "internalType": "uint256",
          "name": "credits",
          "type": "uint256"
        }
      ],
      "name": "TransferCredits",
      "type": "event"
    },
    {
      "inputs": [],
      "name": "instituteCount",
      "outputs": [
        {
          "internalType": "uint256",
          "name": "",
          "type": "uint256"
        }
      ],
      "stateMutability": "view",
      "type": "function",
      "constant": true
    },
    {
      "inputs": [
        {
          "internalType": "address",
          "name": "",
          "type": "address"
        }
      ],
      "name": "institutes",
      "outputs": [
        {
          "internalType": "string",
          "name": "name",
          "type": "string"
        },
        {
          "internalType": "string",
          "name": "location",
          "type": "string"
        },
        {
          "internalType": "address",
          "name": "walletAddress",
          "type": "address"
        },
        {
          "internalType": "string",
          "name": "password",
          "type": "string"
        }
      ],
      "stateMutability": "view",
      "type": "function",
      "constant": true
    },
    {
      "inputs": [
        {
          "internalType": "uint256",
          "name": "",
          "type": "uint256"
        }
      ],
      "name": "markSheets",
      "outputs": [
        {
          "internalType": "address",
          "name": "institute",
          "type": "address"
        },
        {
          "internalType": "address",
          "name": "student",
          "type": "address"
        },
        {
          "internalType": "uint256",
          "name": "semesterNumber",
          "type": "uint256"
        },
        {
          "internalType": "string",
          "name": "content",
          "type": "string"
        }
      ],
      "stateMutability": "view",
      "type": "function",
      "constant": true
    },
    {
      "inputs": [],
      "name": "minCreditsRequiredForTransfer",
      "outputs": [
        {
          "internalType": "uint256",
          "name": "",
          "type": "uint256"
        }
      ],
      "stateMutability": "view",
      "type": "function",
      "constant": true
    },
    {
      "inputs": [
        {
          "internalType": "address",
          "name": "",
          "type": "address"
        }
      ],
      "name": "studentABCIds",
      "outputs": [
        {
          "internalType": "string",
          "name": "",
          "type": "string"
        }
      ],
      "stateMutability": "view",
      "type": "function",
      "constant": true
    },
    {
      "inputs": [
        {
          "internalType": "address",
          "name": "",
          "type": "address"
        }
      ],
      "name": "studentCredits",
      "outputs": [
        {
          "internalType": "uint256",
          "name": "",
          "type": "uint256"
        }
      ],
      "stateMutability": "view",
      "type": "function",
      "constant": true
    },
    {
      "inputs": [
        {
          "internalType": "address",
          "name": "",
          "type": "address"
        }
      ],
      "name": "studentInstitute",
      "outputs": [
        {
          "internalType": "address",
          "name": "",
          "type": "address"
        }
      ],
      "stateMutability": "view",
      "type": "function",
      "constant": true
    },
    {
      "inputs": [
        {
          "internalType": "address",
          "name": "",
          "type": "address"
        }
      ],
      "name": "students",
      "outputs": [
        {
          "internalType": "string",
          "name": "name",
          "type": "string"
        },
        {
          "internalType": "uint256",
          "name": "age",
          "type": "uint256"
        },
        {
          "internalType": "string",
          "name": "email",
          "type": "string"
        },
        {
          "internalType": "address",
          "name": "walletAddress",
          "type": "address"
        },
        {
          "internalType": "string",
          "name": "abcId",
          "type": "string"
        },
        {
          "internalType": "string",
          "name": "password",
          "type": "string"
        }
      ],
      "stateMutability": "view",
      "type": "function",
      "constant": true
    },
    {
      "inputs": [
        {
          "internalType": "uint256",
          "name": "_minCredits",
          "type": "uint256"
        }
      ],
      "name": "setMinCreditsRequiredForTransfer",
      "outputs": [],
      "stateMutability": "nonpayable",
      "type": "function"
    },
    {
      "inputs": [
        {
          "internalType": "address",
          "name": "_student",
          "type": "address"
        },
        {
          "internalType": "string",
          "name": "_name",
          "type": "string"
        },
        {
          "internalType": "uint256",
          "name": "_age",
          "type": "uint256"
        },
        {
          "internalType": "string",
          "name": "_email",
          "type": "string"
        },
        {
          "internalType": "string",
          "name": "_abcId",
          "type": "string"
        },
        {
          "internalType": "string",
          "name": "_password",
          "type": "string"
        }
      ],
      "name": "setStudentDetails",
      "outputs": [],
      "stateMutability": "nonpayable",
      "type": "function"
    },
    {
      "inputs": [
        {
          "internalType": "address",
          "name": "_institute",
          "type": "address"
        },
        {
          "internalType": "string",
          "name": "_name",
          "type": "string"
        },
        {
          "internalType": "string",
          "name": "_location",
          "type": "string"
        },
        {
          "internalType": "string",
          "name": "_password",
          "type": "string"
        }
      ],
      "name": "setInstituteDetails",
      "outputs": [],
      "stateMutability": "nonpayable",
      "type": "function"
    },
    {
      "inputs": [],
      "name": "getInstituteCount",
      "outputs": [
        {
          "internalType": "uint256",
          "name": "",
          "type": "uint256"
        }
      ],
      "stateMutability": "view",
      "type": "function",
      "constant": true
    },
    {
      "inputs": [
        {
          "internalType": "address",
          "name": "_institute",
          "type": "address"
        },
        {
          "internalType": "address",
          "name": "_student",
          "type": "address"
        }
      ],
      "name": "enrollStudent",
      "outputs": [],
      "stateMutability": "nonpayable",
      "type": "function"
    },
    {
      "inputs": [
        {
          "internalType": "address",
          "name": "_institute",
          "type": "address"
        }
      ],
      "name": "getEnrolledStudents",
      "outputs": [
        {
          "internalType": "address[]",
          "name": "",
          "type": "address[]"
        }
      ],
      "stateMutability": "view",
      "type": "function",
      "constant": true
    },
    {
      "inputs": [
        {
          "internalType": "address",
          "name": "_institute",
          "type": "address"
        },
        {
          "internalType": "address",
          "name": "_thirdParty",
          "type": "address"
        }
      ],
      "name": "addVerifiedThirdParty",
      "outputs": [],
      "stateMutability": "nonpayable",
      "type": "function"
    },
    {
      "inputs": [
        {
          "internalType": "address",
          "name": "_student",
          "type": "address"
        },
        {
          "internalType": "uint256",
          "name": "_credits",
          "type": "uint256"
        }
      ],
      "name": "giveCredits",
      "outputs": [],
      "stateMutability": "nonpayable",
      "type": "function"
    },
    {
      "inputs": [
        {
          "internalType": "uint256",
          "name": "_semesterNumber",
          "type": "uint256"
        },
        {
          "internalType": "string",
          "name": "_content",
          "type": "string"
        },
        {
          "internalType": "address",
          "name": "_student",
          "type": "address"
        }
      ],
      "name": "submitMarksheet",
      "outputs": [],
      "stateMutability": "nonpayable",
      "type": "function"
    },
    {
      "inputs": [
        {
          "internalType": "uint256",
          "name": "_semesterNumber",
          "type": "uint256"
        }
      ],
      "name": "getMarksheet",
      "outputs": [
        {
          "internalType": "address",
          "name": "",
          "type": "address"
        },
        {
          "internalType": "address",
          "name": "",
          "type": "address"
        },
        {
          "internalType": "string",
          "name": "",
          "type": "string"
        }
      ],
      "stateMutability": "view",
      "type": "function",
      "constant": true
    },
    {
      "inputs": [
        {
          "internalType": "address",
          "name": "_newInstitute",
          "type": "address"
        }
      ],
      "name": "transferInstitute",
      "outputs": [],
      "stateMutability": "nonpayable",
      "type": "function"
    },
    {
      "inputs": [
        {
          "internalType": "address",
          "name": "_student",
          "type": "address"
        }
      ],
      "name": "getTotalCredits",
      "outputs": [
        {
          "internalType": "uint256",
          "name": "",
          "type": "uint256"
        }
      ],
      "stateMutability": "view",
      "type": "function",
      "constant": true
    },
    {
      "inputs": [
        {
          "internalType": "address",
          "name": "_student",
          "type": "address"
        },
        {
          "internalType": "string",
          "name": "_password",
          "type": "string"
        }
      ],
      "name": "studentLogin",
      "outputs": [
        {
          "internalType": "bool",
          "name": "",
          "type": "bool"
        }
      ],
      "stateMutability": "view",
      "type": "function",
      "constant": true
    },
    {
      "inputs": [
        {
          "internalType": "address",
          "name": "_institute",
          "type": "address"
        },
        {
          "internalType": "string",
          "name": "_password",
          "type": "string"
        }
      ],
      "name": "instituteLogin",
      "outputs": [
        {
          "internalType": "bool",
          "name": "",
          "type": "bool"
        }
      ],
      "stateMutability": "view",
      "type": "function",
      "constant": true
    }
  ],
  "bytecode": "0x6080604052603c600655600060075534801561001a57600080fd5b506134798061002a6000396000f3fe608060405234801561001057600080fd5b50600436106101425760003560e01c8063852b86f6116100b8578063a6c807a91161007c578063a6c807a9146103c7578063beeab6ea146103fc578063c7b0508f14610418578063cf704dad14610448578063f0e7b7f514610464578063fefb21a41461048057610142565b8063852b86f614610311578063861c170f146103415780638ee368e6146103735780639080dbcb1461038f578063a51a18f4146103ab57610142565b8063463f2c211161010a578063463f2c21146102115780634e863f441461022d578063567d81e01461025d57806356c31f5a1461029057806360e7bb0d146102c05780637e0e46b7146102de57610142565b80631cd1451d14610147578063240d55001461016557806326ddbf2414610195578063347979b4146101b157806336fdc8ea146101e1575b600080fd5b61014f61049e565b60405161015c91906120d7565b60405180910390f35b61017f600480360381019061017a9190612164565b6104a4565b60405161018c91906121a0565b60405180910390f35b6101af60048036038101906101aa919061232d565b6104d7565b005b6101cb60048036038101906101c69190612164565b610823565b6040516101d891906120d7565b60405180910390f35b6101fb60048036038101906101f6919061239c565b61083b565b6040516102089190612413565b60405180910390f35b61022b6004803603810190610226919061242e565b6108d5565b005b61024760048036038101906102429190612164565b610ba6565b60405161025491906124ed565b60405180910390f35b6102776004803603810190610272919061250f565b610c46565b604051610287949392919061253c565b60405180910390f35b6102aa60048036038101906102a59190612164565b610d3e565b6040516102b791906120d7565b60405180910390f35b6102c8610d87565b6040516102d591906120d7565b60405180910390f35b6102f860048036038101906102f39190612164565b610d91565b6040516103089493929190612588565b60405180910390f35b61032b6004803603810190610326919061239c565b610f79565b6040516103389190612413565b60405180910390f35b61035b6004803603810190610356919061250f565b611012565b60405161036a939291906125e2565b60405180910390f35b61038d60048036038101906103889190612164565b611250565b005b6103a960048036038101906103a49190612620565b6114d2565b005b6103c560048036038101906103c09190612660565b61173d565b005b6103e160048036038101906103dc9190612164565b611873565b6040516103f39695949392919061275d565b60405180910390f35b6104166004803603810190610411919061250f565b611aef565b005b610432600480360381019061042d9190612164565b611af9565b60405161043f9190612898565b60405180910390f35b610462600480360381019061045d9190612620565b611c3e565b005b61047e600480360381019061047991906128ba565b611ece565b005b610488611fa8565b60405161049591906120d7565b60405180910390f35b60065481565b60026020528060005260406000206000915054906101000a900473ffffffffffffffffffffffffffffffffffffffff1681565b60003390506000600260008473ffffffffffffffffffffffffffffffffffffffff1673ffffffffffffffffffffffffffffffffffffffff16815260200190815260200160002060009054906101000a900473ffffffffffffffffffffffffffffffffffffffff1690508073ffffffffffffffffffffffffffffffffffffffff168273ffffffffffffffffffffffffffffffffffffffff16146105ae576040517f08c379a00000000000000000000000000000000000000000000000000000000081526004016105a5906129e7565b60405180910390fd5b600185101580156105c0575060088511155b6105ff576040517f08c379a00000000000000000000000000000000000000000000000000000000081526004016105f690612a53565b60405180910390fd5b600073ffffffffffffffffffffffffffffffffffffffff166005600087815260200190815260200160002060000160009054906101000a900473ffffffffffffffffffffffffffffffffffffffff1673ffffffffffffffffffffffffffffffffffffffff16146106a4576040517f08c379a000000000000000000000000000000000000000000000000000000000815260040161069b90612ae5565b60405180910390fd5b60405180608001604052808373ffffffffffffffffffffffffffffffffffffffff1681526020018473ffffffffffffffffffffffffffffffffffffffff168152602001868152602001858152506005600087815260200190815260200160002060008201518160000160006101000a81548173ffffffffffffffffffffffffffffffffffffffff021916908373ffffffffffffffffffffffffffffffffffffffff16021790555060208201518160010160006101000a81548173ffffffffffffffffffffffffffffffffffffffff021916908373ffffffffffffffffffffffffffffffffffffffff1602179055506040820151816002015560608201518160030190816107b19190612d11565b509050508273ffffffffffffffffffffffffffffffffffffffff168273ffffffffffffffffffffffffffffffffffffffff167ffe0f45d9cef40d9fe18bd4aeb81837ec459ba1812800f517ad44f480435f22e98787604051610814929190612de3565b60405180910390a35050505050565b60046020528060005260406000206000915090505481565b60008160405160200161084e9190612e4f565b60405160208183030381529060405280519060200120600160008573ffffffffffffffffffffffffffffffffffffffff1673ffffffffffffffffffffffffffffffffffffffff1681526020019081526020016000206005016040516020016108b69190612ee9565b6040516020818303038152906040528051906020012014905092915050565b60008111610918576040517f08c379a000000000000000000000000000000000000000000000000000000000815260040161090f90612f4c565b60405180910390fd5b60006005600061092785611fae565b81526020019081526020016000206040518060800160405290816000820160009054906101000a900473ffffffffffffffffffffffffffffffffffffffff1673ffffffffffffffffffffffffffffffffffffffff1673ffffffffffffffffffffffffffffffffffffffff1681526020016001820160009054906101000a900473ffffffffffffffffffffffffffffffffffffffff1673ffffffffffffffffffffffffffffffffffffffff1673ffffffffffffffffffffffffffffffffffffffff16815260200160028201548152602001600382018054610a0690612b34565b80601f0160208091040260200160405190810160405280929190818152602001828054610a3290612b34565b8015610a7f5780601f10610a5457610100808354040283529160200191610a7f565b820191906000526020600020905b815481529060010190602001808311610a6257829003601f168201915b5050505050815250509050600073ffffffffffffffffffffffffffffffffffffffff16816000015173ffffffffffffffffffffffffffffffffffffffff1603610afd576040517f08c379a0000000000000000000000000000000000000000000000000000000008152600401610af490612fde565b60405180910390fd5b81600460008573ffffffffffffffffffffffffffffffffffffffff1673ffffffffffffffffffffffffffffffffffffffff1681526020019081526020016000206000828254610b4c919061302d565b925050819055508273ffffffffffffffffffffffffffffffffffffffff167fe2362b716dfc80ccebb96675d8b9d930e9481b02dac7f0a4af5f1f77f05511f383604051610b9991906120d7565b60405180910390a2505050565b60036020528060005260406000206000915090508054610bc590612b34565b80601f0160208091040260200160405190810160405280929190818152602001828054610bf190612b34565b8015610c3e5780601f10610c1357610100808354040283529160200191610c3e565b820191906000526020600020905b815481529060010190602001808311610c2157829003601f168201915b505050505081565b60056020528060005260406000206000915090508060000160009054906101000a900473ffffffffffffffffffffffffffffffffffffffff16908060010160009054906101000a900473ffffffffffffffffffffffffffffffffffffffff1690806002015490806003018054610cbb90612b34565b80601f0160208091040260200160405190810160405280929190818152602001828054610ce790612b34565b8015610d345780601f10610d0957610100808354040283529160200191610d34565b820191906000526020600020905b815481529060010190602001808311610d1757829003601f168201915b5050505050905084565b6000600460008373ffffffffffffffffffffffffffffffffffffffff1673ffffffffffffffffffffffffffffffffffffffff168152602001908152602001600020549050919050565b6000600754905090565b6000602052806000526040600020600091509050806000018054610db490612b34565b80601f0160208091040260200160405190810160405280929190818152602001828054610de090612b34565b8015610e2d5780601f10610e0257610100808354040283529160200191610e2d565b820191906000526020600020905b815481529060010190602001808311610e1057829003601f168201915b505050505090806001018054610e4290612b34565b80601f0160208091040260200160405190810160405280929190818152602001828054610e6e90612b34565b8015610ebb5780601f10610e9057610100808354040283529160200191610ebb565b820191906000526020600020905b815481529060010190602001808311610e9e57829003601f168201915b5050505050908060020160009054906101000a900473ffffffffffffffffffffffffffffffffffffffff1690806005018054610ef690612b34565b80601f0160208091040260200160405190810160405280929190818152602001828054610f2290612b34565b8015610f6f5780601f10610f4457610100808354040283529160200191610f6f565b820191906000526020600020905b815481529060010190602001808311610f5257829003601f168201915b5050505050905084565b600081604051602001610f8c9190612e4f565b604051602081830303815290604052805190602001206000808573ffffffffffffffffffffffffffffffffffffffff1673ffffffffffffffffffffffffffffffffffffffff168152602001908152602001600020600501604051602001610ff39190612ee9565b6040516020818303038152906040528051906020012014905092915050565b60008060606000600560008681526020019081526020016000206040518060800160405290816000820160009054906101000a900473ffffffffffffffffffffffffffffffffffffffff1673ffffffffffffffffffffffffffffffffffffffff1673ffffffffffffffffffffffffffffffffffffffff1681526020016001820160009054906101000a900473ffffffffffffffffffffffffffffffffffffffff1673ffffffffffffffffffffffffffffffffffffffff1673ffffffffffffffffffffffffffffffffffffffff168152602001600282015481526020016003820180546110fd90612b34565b80601f016020809104026020016040519081016040528092919081815260200182805461112990612b34565b80156111765780601f1061114b57610100808354040283529160200191611176565b820191906000526020600020905b81548152906001019060200180831161115957829003601f168201915b50505050508152505090506000339050816020015173ffffffffffffffffffffffffffffffffffffffff168173ffffffffffffffffffffffffffffffffffffffff1614806111f35750816000015173ffffffffffffffffffffffffffffffffffffffff168173ffffffffffffffffffffffffffffffffffffffff16145b611232576040517f08c379a0000000000000000000000000000000000000000000000000000000008152600401611229906130ad565b60405180910390fd5b81600001518260200151836060015194509450945050509193909250565b60003390506000600460008373ffffffffffffffffffffffffffffffffffffffff1673ffffffffffffffffffffffffffffffffffffffff1681526020019081526020016000205490506006548110156112de576040517f08c379a00000000000000000000000000000000000000000000000000000000081526004016112d59061313f565b60405180910390fd5b8273ffffffffffffffffffffffffffffffffffffffff16600260008473ffffffffffffffffffffffffffffffffffffffff1673ffffffffffffffffffffffffffffffffffffffff16815260200190815260200160002060009054906101000a900473ffffffffffffffffffffffffffffffffffffffff1673ffffffffffffffffffffffffffffffffffffffff16036113ab576040517f08c379a00000000000000000000000000000000000000000000000000000000081526004016113a2906131d1565b60405180910390fd5b82600260008473ffffffffffffffffffffffffffffffffffffffff1673ffffffffffffffffffffffffffffffffffffffff16815260200190815260200160002060006101000a81548173ffffffffffffffffffffffffffffffffffffffff021916908373ffffffffffffffffffffffffffffffffffffffff16021790555080600460008473ffffffffffffffffffffffffffffffffffffffff1673ffffffffffffffffffffffffffffffffffffffff168152602001908152602001600020600082825461147891906131f1565b925050819055508173ffffffffffffffffffffffffffffffffffffffff167fe2362b716dfc80ccebb96675d8b9d930e9481b02dac7f0a4af5f1f77f05511f3826040516114c591906120d7565b60405180910390a2505050565b818073ffffffffffffffffffffffffffffffffffffffff163373ffffffffffffffffffffffffffffffffffffffff1614611541576040517f08c379a000000000000000000000000000000000000000000000000000000000815260040161153890613271565b60405180910390fd5b600073ffffffffffffffffffffffffffffffffffffffff16600160008473ffffffffffffffffffffffffffffffffffffffff1673ffffffffffffffffffffffffffffffffffffffff16815260200190815260200160002060030160009054906101000a900473ffffffffffffffffffffffffffffffffffffffff1673ffffffffffffffffffffffffffffffffffffffff1603611612576040517f08c379a0000000000000000000000000000000000000000000000000000000008152600401611609906132dd565b60405180910390fd5b60008060008573ffffffffffffffffffffffffffffffffffffffff1673ffffffffffffffffffffffffffffffffffffffff168152602001908152602001600020905080600401839080600181540180825580915050600190039060005260206000200160009091909190916101000a81548173ffffffffffffffffffffffffffffffffffffffff021916908373ffffffffffffffffffffffffffffffffffffffff16021790555083600260008573ffffffffffffffffffffffffffffffffffffffff1673ffffffffffffffffffffffffffffffffffffffff16815260200190815260200160002060006101000a81548173ffffffffffffffffffffffffffffffffffffffff021916908373ffffffffffffffffffffffffffffffffffffffff16021790555050505050565b6040518060c001604052808681526020018581526020018481526020018773ffffffffffffffffffffffffffffffffffffffff16815260200183815260200182815250600160008873ffffffffffffffffffffffffffffffffffffffff1673ffffffffffffffffffffffffffffffffffffffff16815260200190815260200160002060008201518160000190816117d49190612d11565b506020820151816001015560408201518160020190816117f49190612d11565b5060608201518160030160006101000a81548173ffffffffffffffffffffffffffffffffffffffff021916908373ffffffffffffffffffffffffffffffffffffffff16021790555060808201518160040190816118519190612d11565b5060a08201518160050190816118679190612d11565b50905050505050505050565b600160205280600052604060002060009150905080600001805461189690612b34565b80601f01602080910402602001604051908101604052809291908181526020018280546118c290612b34565b801561190f5780601f106118e45761010080835404028352916020019161190f565b820191906000526020600020905b8154815290600101906020018083116118f257829003601f168201915b50505050509080600101549080600201805461192a90612b34565b80601f016020809104026020016040519081016040528092919081815260200182805461195690612b34565b80156119a35780601f10611978576101008083540402835291602001916119a3565b820191906000526020600020905b81548152906001019060200180831161198657829003601f168201915b5050505050908060030160009054906101000a900473ffffffffffffffffffffffffffffffffffffffff16908060040180546119de90612b34565b80601f0160208091040260200160405190810160405280929190818152602001828054611a0a90612b34565b8015611a575780601f10611a2c57610100808354040283529160200191611a57565b820191906000526020600020905b815481529060010190602001808311611a3a57829003601f168201915b505050505090806005018054611a6c90612b34565b80601f0160208091040260200160405190810160405280929190818152602001828054611a9890612b34565b8015611ae55780601f10611aba57610100808354040283529160200191611ae5565b820191906000526020600020905b815481529060010190602001808311611ac857829003601f168201915b5050505050905086565b8060068190555050565b6060818073ffffffffffffffffffffffffffffffffffffffff163373ffffffffffffffffffffffffffffffffffffffff1614611b6a576040517f08c379a0000000000000000000000000000000000000000000000000000000008152600401611b6190613271565b60405180910390fd5b60008060008573ffffffffffffffffffffffffffffffffffffffff1673ffffffffffffffffffffffffffffffffffffffff168152602001908152602001600020905080600401805480602002602001604051908101604052809291908181526020018280548015611c3057602002820191906000526020600020905b8160009054906101000a900473ffffffffffffffffffffffffffffffffffffffff1673ffffffffffffffffffffffffffffffffffffffff1681526020019060010190808311611be6575b505050505092505050919050565b3373ffffffffffffffffffffffffffffffffffffffff166000808473ffffffffffffffffffffffffffffffffffffffff1673ffffffffffffffffffffffffffffffffffffffff16815260200190815260200160002060020160009054906101000a900473ffffffffffffffffffffffffffffffffffffffff1673ffffffffffffffffffffffffffffffffffffffff1614611d0d576040517f08c379a0000000000000000000000000000000000000000000000000000000008152600401611d049061336f565b60405180910390fd5b6000808373ffffffffffffffffffffffffffffffffffffffff1673ffffffffffffffffffffffffffffffffffffffff16815260200190815260200160002060030160008273ffffffffffffffffffffffffffffffffffffffff1673ffffffffffffffffffffffffffffffffffffffff16815260200190815260200160002060009054906101000a900460ff1615611dd9576040517f08c379a0000000000000000000000000000000000000000000000000000000008152600401611dd0906133db565b60405180910390fd5b60016000808473ffffffffffffffffffffffffffffffffffffffff1673ffffffffffffffffffffffffffffffffffffffff16815260200190815260200160002060030160008373ffffffffffffffffffffffffffffffffffffffff1673ffffffffffffffffffffffffffffffffffffffff16815260200190815260200160002060006101000a81548160ff0219169083151502179055508073ffffffffffffffffffffffffffffffffffffffff168273ffffffffffffffffffffffffffffffffffffffff167fbbab63930789b415a7adbc53f62693ca91f67778c33c2f62735312e75a8f551860405160405180910390a35050565b60008060008673ffffffffffffffffffffffffffffffffffffffff1673ffffffffffffffffffffffffffffffffffffffff168152602001908152602001600020905083816000019081611f219190612d11565b5082816001019081611f339190612d11565b50848160020160006101000a81548173ffffffffffffffffffffffffffffffffffffffff021916908373ffffffffffffffffffffffffffffffffffffffff16021790555081816005019081611f889190612d11565b5060076000815480929190611f9c906133fb565b91905055505050505050565b60075481565b600080600090506000600190505b600881116120b4578373ffffffffffffffffffffffffffffffffffffffff166005600083815260200190815260200160002060010160009054906101000a900473ffffffffffffffffffffffffffffffffffffffff1673ffffffffffffffffffffffffffffffffffffffff161480156120985750600073ffffffffffffffffffffffffffffffffffffffff166005600083815260200190815260200160002060000160009054906101000a900473ffffffffffffffffffffffffffffffffffffffff1673ffffffffffffffffffffffffffffffffffffffff1614155b156120a1578091505b80806120ac906133fb565b915050611fbc565b5080915050919050565b6000819050919050565b6120d1816120be565b82525050565b60006020820190506120ec60008301846120c8565b92915050565b6000604051905090565b600080fd5b600080fd5b600073ffffffffffffffffffffffffffffffffffffffff82169050919050565b600061213182612106565b9050919050565b61214181612126565b811461214c57600080fd5b50565b60008135905061215e81612138565b92915050565b60006020828403121561217a576121796120fc565b5b60006121888482850161214f565b91505092915050565b61219a81612126565b82525050565b60006020820190506121b56000830184612191565b92915050565b6121c4816120be565b81146121cf57600080fd5b50565b6000813590506121e1816121bb565b92915050565b600080fd5b600080fd5b6000601f19601f8301169050919050565b7f4e487b7100000000000000000000000000000000000000000000000000000000600052604160045260246000fd5b61223a826121f1565b810181811067ffffffffffffffff8211171561225957612258612202565b5b80604052505050565b600061226c6120f2565b90506122788282612231565b919050565b600067ffffffffffffffff82111561229857612297612202565b5b6122a1826121f1565b9050602081019050919050565b82818337600083830152505050565b60006122d06122cb8461227d565b612262565b9050828152602081018484840111156122ec576122eb6121ec565b5b6122f78482856122ae565b509392505050565b600082601f830112612314576123136121e7565b5b81356123248482602086016122bd565b91505092915050565b600080600060608486031215612346576123456120fc565b5b6000612354868287016121d2565b935050602084013567ffffffffffffffff81111561237557612374612101565b5b612381868287016122ff565b92505060406123928682870161214f565b9150509250925092565b600080604083850312156123b3576123b26120fc565b5b60006123c18582860161214f565b925050602083013567ffffffffffffffff8111156123e2576123e1612101565b5b6123ee858286016122ff565b9150509250929050565b60008115159050919050565b61240d816123f8565b82525050565b60006020820190506124286000830184612404565b92915050565b60008060408385031215612445576124446120fc565b5b60006124538582860161214f565b9250506020612464858286016121d2565b9150509250929050565b600081519050919050565b600082825260208201905092915050565b60005b838110156124a857808201518184015260208101905061248d565b60008484015250505050565b60006124bf8261246e565b6124c98185612479565b93506124d981856020860161248a565b6124e2816121f1565b840191505092915050565b6000602082019050818103600083015261250781846124b4565b905092915050565b600060208284031215612525576125246120fc565b5b6000612533848285016121d2565b91505092915050565b60006080820190506125516000830187612191565b61255e6020830186612191565b61256b60408301856120c8565b818103606083015261257d81846124b4565b905095945050505050565b600060808201905081810360008301526125a281876124b4565b905081810360208301526125b681866124b4565b90506125c56040830185612191565b81810360608301526125d781846124b4565b905095945050505050565b60006060820190506125f76000830186612191565b6126046020830185612191565b818103604083015261261681846124b4565b9050949350505050565b60008060408385031215612637576126366120fc565b5b60006126458582860161214f565b92505060206126568582860161214f565b9150509250929050565b60008060008060008060c0878903121561267d5761267c6120fc565b5b600061268b89828a0161214f565b965050602087013567ffffffffffffffff8111156126ac576126ab612101565b5b6126b889828a016122ff565b95505060406126c989828a016121d2565b945050606087013567ffffffffffffffff8111156126ea576126e9612101565b5b6126f689828a016122ff565b935050608087013567ffffffffffffffff81111561271757612716612101565b5b61272389828a016122ff565b92505060a087013567ffffffffffffffff81111561274457612743612101565b5b61275089828a016122ff565b9150509295509295509295565b600060c082019050818103600083015261277781896124b4565b905061278660208301886120c8565b818103604083015261279881876124b4565b90506127a76060830186612191565b81810360808301526127b981856124b4565b905081810360a08301526127cd81846124b4565b9050979650505050505050565b600081519050919050565b600082825260208201905092915050565b6000819050602082019050919050565b61280f81612126565b82525050565b60006128218383612806565b60208301905092915050565b6000602082019050919050565b6000612845826127da565b61284f81856127e5565b935061285a836127f6565b8060005b8381101561288b5781516128728882612815565b975061287d8361282d565b92505060018101905061285e565b5085935050505092915050565b600060208201905081810360008301526128b2818461283a565b905092915050565b600080600080608085870312156128d4576128d36120fc565b5b60006128e28782880161214f565b945050602085013567ffffffffffffffff81111561290357612902612101565b5b61290f878288016122ff565b935050604085013567ffffffffffffffff8111156129305761292f612101565b5b61293c878288016122ff565b925050606085013567ffffffffffffffff81111561295d5761295c612101565b5b612969878288016122ff565b91505092959194509250565b7f43616c6c6572206973206e6f7420617574686f72697a656420746f207375626d60008201527f6974206d61726b736865657420666f7220746869732073747564656e74000000602082015250565b60006129d1603d83612479565b91506129dc82612975565b604082019050919050565b60006020820190508181036000830152612a00816129c4565b9050919050565b7f496e76616c69642073656d6573746572206e756d626572000000000000000000600082015250565b6000612a3d601783612479565b9150612a4882612a07565b602082019050919050565b60006020820190508181036000830152612a6c81612a30565b9050919050565b7f4d61726b736865657420616c7265616479207375626d697474656420666f722060008201527f746869732073656d657374657200000000000000000000000000000000000000602082015250565b6000612acf602d83612479565b9150612ada82612a73565b604082019050919050565b60006020820190508181036000830152612afe81612ac2565b9050919050565b7f4e487b7100000000000000000000000000000000000000000000000000000000600052602260045260246000fd5b60006002820490506001821680612b4c57607f821691505b602082108103612b5f57612b5e612b05565b5b50919050565b60008190508160005260206000209050919050565b60006020601f8301049050919050565b600082821b905092915050565b600060088302612bc77fffffffffffffffffffffffffffffffffffffffffffffffffffffffffffffffff82612b8a565b612bd18683612b8a565b95508019841693508086168417925050509392505050565b6000819050919050565b6000612c0e612c09612c04846120be565b612be9565b6120be565b9050919050565b6000819050919050565b612c2883612bf3565b612c3c612c3482612c15565b848454612b97565b825550505050565b600090565b612c51612c44565b612c5c818484612c1f565b505050565b5b81811015612c8057612c75600082612c49565b600181019050612c62565b5050565b601f821115612cc557612c9681612b65565b612c9f84612b7a565b81016020851015612cae578190505b612cc2612cba85612b7a565b830182612c61565b50505b505050565b600082821c905092915050565b6000612ce860001984600802612cca565b1980831691505092915050565b6000612d018383612cd7565b9150826002028217905092915050565b612d1a8261246e565b67ffffffffffffffff811115612d3357612d32612202565b5b612d3d8254612b34565b612d48828285612c84565b600060209050601f831160018114612d7b5760008415612d69578287015190505b612d738582612cf5565b865550612ddb565b601f198416612d8986612b65565b60005b82811015612db157848901518255600182019150602085019450602081019050612d8c565b86831015612dce5784890151612dca601f891682612cd7565b8355505b6001600288020188555050505b505050505050565b6000604082019050612df860008301856120c8565b8181036020830152612e0a81846124b4565b90509392505050565b600081905092915050565b6000612e298261246e565b612e338185612e13565b9350612e4381856020860161248a565b80840191505092915050565b6000612e5b8284612e1e565b915081905092915050565b60008154612e7381612b34565b612e7d8186612e13565b94506001821660008114612e985760018114612ead57612ee0565b60ff1983168652811515820286019350612ee0565b612eb685612b65565b60005b83811015612ed857815481890152600182019150602081019050612eb9565b838801955050505b50505092915050565b6000612ef58284612e66565b915081905092915050565b7f496e76616c6964206372656469747320616d6f756e7400000000000000000000600082015250565b6000612f36601683612479565b9150612f4182612f00565b602082019050919050565b60006020820190508181036000830152612f6581612f29565b9050919050565b7f4e6f206d61726b7368656574207375626d697474656420666f7220746865207360008201527f747564656e740000000000000000000000000000000000000000000000000000602082015250565b6000612fc8602683612479565b9150612fd382612f6c565b604082019050919050565b60006020820190508181036000830152612ff781612fbb565b9050919050565b7f4e487b7100000000000000000000000000000000000000000000000000000000600052601160045260246000fd5b6000613038826120be565b9150613043836120be565b925082820190508082111561305b5761305a612ffe565b5b92915050565b7f556e617574686f72697a65642061636365737300000000000000000000000000600082015250565b6000613097601383612479565b91506130a282613061565b602082019050919050565b600060208201905081810360008301526130c68161308a565b9050919050565b7f496e73756666696369656e74206372656469747320666f72207472616e73666560008201527f7200000000000000000000000000000000000000000000000000000000000000602082015250565b6000613129602183612479565b9150613134826130cd565b604082019050919050565b600060208201905081810360008301526131588161311c565b9050919050565b7f416c726561647920656e726f6c6c656420696e20746865206e657720696e737460008201527f6974757465000000000000000000000000000000000000000000000000000000602082015250565b60006131bb602583612479565b91506131c68261315f565b604082019050919050565b600060208201905081810360008301526131ea816131ae565b9050919050565b60006131fc826120be565b9150613207836120be565b925082820390508181111561321f5761321e612ffe565b5b92915050565b7f43616c6c6572206973206e6f742074686520696e737469747574650000000000600082015250565b600061325b601b83612479565b915061326682613225565b602082019050919050565b6000602082019050818103600083015261328a8161324e565b9050919050565b7f53747564656e74206e6f74207265676973746572656400000000000000000000600082015250565b60006132c7601683612479565b91506132d282613291565b602082019050919050565b600060208201905081810360008301526132f6816132ba565b9050919050565b7f4f6e6c7920696e737469747574652063616e206164642074686972642d70617260008201527f7479000000000000000000000000000000000000000000000000000000000000602082015250565b6000613359602283612479565b9150613364826132fd565b604082019050919050565b600060208201905081810360008301526133888161334c565b9050919050565b7f54686972642d706172747920616c726561647920766572696669656400000000600082015250565b60006133c5601c83612479565b91506133d08261338f565b602082019050919050565b600060208201905081810360008301526133f4816133b8565b9050919050565b6000613406826120be565b91507fffffffffffffffffffffffffffffffffffffffffffffffffffffffffffffffff820361343857613437612ffe565b5b60018201905091905056fea26469706673582212207e542cc168406f9593c28126e19a6ae89636af7d1da5afb55304dc323a5eb6fd64736f6c63430008130033",
  "immutableReferences": {},
  "source": "// SPDX-License-Identifier: MIT\r\npragma solidity ^0.8.0;\r\n\r\ncontract CreditTransfer {\r\n    struct Student {\r\n        string name;\r\n        uint age;\r\n        string email;\r\n        address walletAddress;\r\n        string abcId;\r\n        string password;\r\n    }\r\n\r\n    struct Institute {\r\n        string name;\r\n        string location;\r\n        address walletAddress;\r\n        mapping(address => bool) verifiedThirdParties; // Mapping to store verified third-party addresses\r\n        address[] enrolledStudents; // Array to store enrolled students\r\n        string password;\r\n    }\r\n\r\n    struct Marksheet {\r\n        address institute;\r\n        address student;\r\n        uint semesterNumber;\r\n        string content; // IPFS hash or any other content\r\n    }\r\n\r\n    struct SemesterCompletion {\r\n        address student;\r\n        uint semesterNumber;\r\n        uint completionTimestamp;\r\n        bool verified;\r\n    }\r\n\r\n    mapping(address => Institute) public institutes; // Mapping to store Institute details\r\n    mapping(address => Student) public students; // Mapping to store Student details\r\n    mapping(address => address) public studentInstitute; // Mapping to store student's current institute\r\n    mapping(address => string) public studentABCIds; // Mapping to store ABC ID of students\r\n    mapping(address => uint) public studentCredits; // Mapping to store credits for each student\r\n    mapping(uint => Marksheet) public markSheets;\r\n\r\n    event SemesterCompleted(address indexed student, uint semesterNumber, uint completionTimestamp, bool verified);\r\n    event MarksheetSubmitted(address indexed institute, address indexed student, uint semesterNumber, string content);\r\n    event AdminApproval(uint semesterNumber, address indexed student);\r\n    event TransferCredits(address indexed student, uint credits);\r\n    event ThirdPartyVerified(address indexed institute, address indexed thirdParty);\r\n\r\n    uint public minCreditsRequiredForTransfer = 60; // Minimum credits required for transfer\r\n    uint public instituteCount = 0;\r\n\r\n    modifier onlyInstitute(address _institute) {\r\n        require(msg.sender == _institute, \"Caller is not the institute\");\r\n        _;\r\n    }\r\n\r\n    function setMinCreditsRequiredForTransfer(uint _minCredits) public {\r\n        minCreditsRequiredForTransfer = _minCredits;\r\n    }\r\n\r\n    function setStudentDetails(address _student, string memory _name, uint _age, string memory _email, string memory _abcId, string memory _password) public {\r\n        students[_student] = Student(_name, _age, _email, _student, _abcId, _password);\r\n    }\r\n\r\n    function setInstituteDetails(address _institute, string memory _name, string memory _location, string memory _password) public {\r\n        // Declare a new Institute struct\r\n        Institute storage newInstitute = institutes[_institute];\r\n\r\n        // Initialize the individual fields of the Institute struct\r\n        newInstitute.name = _name;\r\n        newInstitute.location = _location;\r\n        newInstitute.walletAddress = _institute;\r\n        newInstitute.password = _password;\r\n        instituteCount++;\r\n    }\r\n\r\n    function getInstituteCount() public view returns (uint) {\r\n        return instituteCount;\r\n    }\r\n    function enrollStudent(address _institute, address _student) public onlyInstitute(_institute) {\r\n        // Ensure the student is not already enrolled in this institute\r\n        require(students[_student].walletAddress != address(0), \"Student not registered\");\r\n\r\n        Institute storage institute = institutes[_institute];\r\n        institute.enrolledStudents.push(_student);\r\n        studentInstitute[_student] = _institute;\r\n    }\r\n\r\n    function getEnrolledStudents(address _institute) public view onlyInstitute(_institute) returns (address[] memory) {\r\n        Institute storage institute = institutes[_institute];\r\n        return institute.enrolledStudents;\r\n    }\r\n\r\n    function addVerifiedThirdParty(address _institute, address _thirdParty) public {\r\n        require(institutes[_institute].walletAddress == msg.sender, \"Only institute can add third-party\");\r\n        require(!institutes[_institute].verifiedThirdParties[_thirdParty], \"Third-party already verified\");\r\n\r\n        institutes[_institute].verifiedThirdParties[_thirdParty] = true;\r\n        emit ThirdPartyVerified(_institute, _thirdParty);\r\n    }\r\n\r\n    function giveCredits(address _student, uint _credits) public {\r\n        require(_credits > 0, \"Invalid credits amount\");\r\n\r\n        // Get the latest submitted marksheet for the student\r\n        Marksheet memory latestMarksheet = markSheets[getLatestSubmittedSemester(_student)];\r\n\r\n        // Check if the marksheet exists and is verified\r\n        require(latestMarksheet.institute != address(0), \"No marksheet submitted for the student\");\r\n\r\n        // Transfer the specified credits to the student\r\n        studentCredits[_student] += _credits;\r\n\r\n        // Emit an event indicating the transfer of credits\r\n        emit TransferCredits(_student, _credits);\r\n    }\r\n\r\n    // Internal function to get the latest submitted semester for a student\r\n    function getLatestSubmittedSemester(address _student) internal view returns (uint) {\r\n        uint latestSemester = 0;\r\n        for (uint i = 1; i <= 8; i++) {\r\n            if (markSheets[i].student == _student && markSheets[i].institute != address(0)) {\r\n                latestSemester = i;\r\n            }\r\n        }\r\n        return latestSemester;\r\n    }\r\n\r\n    function submitMarksheet(uint _semesterNumber, string memory _content, address _student) public {\r\n        address instituteAddress = msg.sender;\r\n        address enrolledInstitute = studentInstitute[_student];\r\n\r\n        // Check that the caller is an institute and matches the institute the student is enrolled in\r\n        require(instituteAddress == enrolledInstitute, \"Caller is not authorized to submit marksheet for this student\");\r\n        require(_semesterNumber >= 1 && _semesterNumber <= 8, \"Invalid semester number\");\r\n\r\n        // Check if marksheet for this semester has already been submitted\r\n        require(markSheets[_semesterNumber].institute == address(0), \"Marksheet already submitted for this semester\");\r\n\r\n        // Create and store the marksheet for the specified student\r\n        markSheets[_semesterNumber] = Marksheet(instituteAddress, _student, _semesterNumber, _content);\r\n\r\n        // Emit an event to log the marksheet submission\r\n        emit MarksheetSubmitted(instituteAddress, _student, _semesterNumber, _content);\r\n    }\r\n\r\n    function getMarksheet(uint _semesterNumber) public view returns (address, address, string memory) {\r\n        Marksheet memory marksheet = markSheets[_semesterNumber];\r\n        address studentAddress = msg.sender;\r\n\r\n        require(studentAddress == marksheet.student || studentAddress == marksheet.institute, \"Unauthorized access\");\r\n\r\n        return (marksheet.institute, marksheet.student, marksheet.content);\r\n    }\r\n\r\n    function transferInstitute(address _newInstitute) public {\r\n        address studentAddress = msg.sender;\r\n        uint totalCredits = studentCredits[studentAddress];\r\n        \r\n        require(totalCredits >= minCreditsRequiredForTransfer, \"Insufficient credits for transfer\");\r\n        require(studentInstitute[studentAddress] != _newInstitute, \"Already enrolled in the new institute\");\r\n\r\n        studentInstitute[studentAddress] = _newInstitute;\r\n\r\n        // Deduct credits upon transfer\r\n        studentCredits[studentAddress] -= totalCredits;\r\n        \r\n        // Emit an event indicating the transfer of credits\r\n        emit TransferCredits(studentAddress, totalCredits);\r\n        \r\n        // Additional logic for transferring the student's data to the new institute can be added here\r\n    }\r\n\r\n    function getTotalCredits(address _student) public view returns (uint) {\r\n        return studentCredits[_student];\r\n    }\r\n\r\n    // Student login function\r\n    function studentLogin(address _student, string memory _password) public view returns (bool) {\r\n        return keccak256(abi.encodePacked(students[_student].password)) == keccak256(abi.encodePacked(_password));\r\n    }\r\n\r\n    // Institute login function\r\n    function instituteLogin(address _institute, string memory _password) public view returns (bool) {\r\n        return keccak256(abi.encodePacked(institutes[_institute].password)) == keccak256(abi.encodePacked(_password));\r\n    }\r\n}\r\n",
  "sourcePath": "C:\\Users\\adity\\Desktop\\Coding\\Major Project\\contracts\\CreditTransfer.sol",
  "compiler": {
    "name": "solc",
    "version": "0.8.19+commit.7dd6d404.Emscripten.clang"
  },
  "schemaVersion": "3.4.16",
  "updatedAt": "2024-05-01T14:51:54.399Z",
  "networkType": "ethereum",
  "devdoc": {
    "kind": "dev",
    "methods": {},
    "version": 1
  },
  "userdoc": {
    "kind": "user",
    "methods": {},
    "version": 1
  }
}