{
  "contractName": "CreditTransfer",
  "abi": [
    {
      "anonymous": false,
      "inputs": [
        {
          "indexed": false,
          "internalType": "uint256",
          "name": "semesterNumber",
          "type": "uint256"
        },
        {
          "indexed": true,
          "internalType": "address",
          "name": "student",
          "type": "address"
        }
      ],
      "name": "AdminApproval",
      "type": "event"
    },
    {
      "anonymous": false,
      "inputs": [
        {
          "indexed": true,
          "internalType": "address",
          "name": "institute",
          "type": "address"
        },
        {
          "indexed": true,
          "internalType": "address",
          "name": "student",
          "type": "address"
        },
        {
          "indexed": false,
          "internalType": "uint256",
          "name": "semesterNumber",
          "type": "uint256"
        },
        {
          "indexed": false,
          "internalType": "string",
          "name": "content",
          "type": "string"
        }
      ],
      "name": "MarksheetSubmitted",
      "type": "event"
    },
    {
      "anonymous": false,
      "inputs": [
        {
          "indexed": true,
          "internalType": "address",
          "name": "student",
          "type": "address"
        },
        {
          "indexed": false,
          "internalType": "uint256",
          "name": "semesterNumber",
          "type": "uint256"
        },
        {
          "indexed": false,
          "internalType": "uint256",
          "name": "completionTimestamp",
          "type": "uint256"
        },
        {
          "indexed": false,
          "internalType": "bool",
          "name": "verified",
          "type": "bool"
        }
      ],
      "name": "SemesterCompleted",
      "type": "event"
    },
    {
      "anonymous": false,
      "inputs": [
        {
          "indexed": true,
          "internalType": "address",
          "name": "institute",
          "type": "address"
        },
        {
          "indexed": true,
          "internalType": "address",
          "name": "thirdParty",
          "type": "address"
        }
      ],
      "name": "ThirdPartyVerified",
      "type": "event"
    },
    {
      "anonymous": false,
      "inputs": [
        {
          "indexed": true,
          "internalType": "address",
          "name": "student",
          "type": "address"
        },
        {
          "indexed": false,
          "internalType": "uint256",
          "name": "credits",
          "type": "uint256"
        }
      ],
      "name": "TransferCredits",
      "type": "event"
    },
    {
      "inputs": [
        {
          "internalType": "uint256",
          "name": "",
          "type": "uint256"
        }
      ],
      "name": "instituteAddresses",
      "outputs": [
        {
          "internalType": "address",
          "name": "",
          "type": "address"
        }
      ],
      "stateMutability": "view",
      "type": "function",
      "constant": true
    },
    {
      "inputs": [
        {
          "internalType": "address",
          "name": "",
          "type": "address"
        }
      ],
      "name": "institutes",
      "outputs": [
        {
          "internalType": "string",
          "name": "name",
          "type": "string"
        },
        {
          "internalType": "string",
          "name": "location",
          "type": "string"
        },
        {
          "internalType": "address",
          "name": "walletAddress",
          "type": "address"
        },
        {
          "internalType": "string",
          "name": "password",
          "type": "string"
        }
      ],
      "stateMutability": "view",
      "type": "function",
      "constant": true
    },
    {
      "inputs": [
        {
          "internalType": "uint256",
          "name": "",
          "type": "uint256"
        }
      ],
      "name": "markSheets",
      "outputs": [
        {
          "internalType": "address",
          "name": "institute",
          "type": "address"
        },
        {
          "internalType": "address",
          "name": "student",
          "type": "address"
        },
        {
          "internalType": "uint256",
          "name": "semesterNumber",
          "type": "uint256"
        },
        {
          "internalType": "string",
          "name": "content",
          "type": "string"
        }
      ],
      "stateMutability": "view",
      "type": "function",
      "constant": true
    },
    {
      "inputs": [],
      "name": "minCreditsRequiredForTransfer",
      "outputs": [
        {
          "internalType": "uint256",
          "name": "",
          "type": "uint256"
        }
      ],
      "stateMutability": "view",
      "type": "function",
      "constant": true
    },
    {
      "inputs": [
        {
          "internalType": "address",
          "name": "",
          "type": "address"
        }
      ],
      "name": "studentABCIds",
      "outputs": [
        {
          "internalType": "string",
          "name": "",
          "type": "string"
        }
      ],
      "stateMutability": "view",
      "type": "function",
      "constant": true
    },
    {
      "inputs": [
        {
          "internalType": "address",
          "name": "",
          "type": "address"
        }
      ],
      "name": "studentCredits",
      "outputs": [
        {
          "internalType": "uint256",
          "name": "",
          "type": "uint256"
        }
      ],
      "stateMutability": "view",
      "type": "function",
      "constant": true
    },
    {
      "inputs": [
        {
          "internalType": "address",
          "name": "",
          "type": "address"
        }
      ],
      "name": "studentInstitute",
      "outputs": [
        {
          "internalType": "address",
          "name": "",
          "type": "address"
        }
      ],
      "stateMutability": "view",
      "type": "function",
      "constant": true
    },
    {
      "inputs": [
        {
          "internalType": "address",
          "name": "",
          "type": "address"
        }
      ],
      "name": "students",
      "outputs": [
        {
          "internalType": "string",
          "name": "name",
          "type": "string"
        },
        {
          "internalType": "uint256",
          "name": "age",
          "type": "uint256"
        },
        {
          "internalType": "string",
          "name": "email",
          "type": "string"
        },
        {
          "internalType": "address",
          "name": "walletAddress",
          "type": "address"
        },
        {
          "internalType": "string",
          "name": "abcId",
          "type": "string"
        },
        {
          "internalType": "string",
          "name": "password",
          "type": "string"
        }
      ],
      "stateMutability": "view",
      "type": "function",
      "constant": true
    },
    {
      "inputs": [
        {
          "internalType": "uint256",
          "name": "_minCredits",
          "type": "uint256"
        }
      ],
      "name": "setMinCreditsRequiredForTransfer",
      "outputs": [],
      "stateMutability": "nonpayable",
      "type": "function"
    },
    {
      "inputs": [
        {
          "internalType": "address",
          "name": "_student",
          "type": "address"
        },
        {
          "internalType": "string",
          "name": "_name",
          "type": "string"
        },
        {
          "internalType": "uint256",
          "name": "_age",
          "type": "uint256"
        },
        {
          "internalType": "string",
          "name": "_email",
          "type": "string"
        },
        {
          "internalType": "string",
          "name": "_abcId",
          "type": "string"
        },
        {
          "internalType": "string",
          "name": "_password",
          "type": "string"
        }
      ],
      "name": "setStudentDetails",
      "outputs": [],
      "stateMutability": "nonpayable",
      "type": "function"
    },
    {
      "inputs": [
        {
          "internalType": "address",
          "name": "_institute",
          "type": "address"
        },
        {
          "internalType": "string",
          "name": "_name",
          "type": "string"
        },
        {
          "internalType": "string",
          "name": "_location",
          "type": "string"
        },
        {
          "internalType": "string",
          "name": "_password",
          "type": "string"
        }
      ],
      "name": "setInstituteDetails",
      "outputs": [],
      "stateMutability": "nonpayable",
      "type": "function"
    },
    {
      "inputs": [],
      "name": "getInstituteCount",
      "outputs": [
        {
          "internalType": "uint256",
          "name": "",
          "type": "uint256"
        }
      ],
      "stateMutability": "view",
      "type": "function",
      "constant": true
    },
    {
      "inputs": [],
      "name": "getInstituteAddresses",
      "outputs": [
        {
          "internalType": "address[]",
          "name": "",
          "type": "address[]"
        }
      ],
      "stateMutability": "view",
      "type": "function",
      "constant": true
    },
    {
      "inputs": [
        {
          "internalType": "address",
          "name": "_institute",
          "type": "address"
        },
        {
          "internalType": "address",
          "name": "_student",
          "type": "address"
        }
      ],
      "name": "enrollStudent",
      "outputs": [],
      "stateMutability": "nonpayable",
      "type": "function"
    },
    {
      "inputs": [
        {
          "internalType": "address",
          "name": "_institute",
          "type": "address"
        }
      ],
      "name": "getEnrolledStudents",
      "outputs": [
        {
          "internalType": "address[]",
          "name": "",
          "type": "address[]"
        }
      ],
      "stateMutability": "view",
      "type": "function",
      "constant": true
    },
    {
      "inputs": [
        {
          "internalType": "address",
          "name": "_institute",
          "type": "address"
        },
        {
          "internalType": "address",
          "name": "_thirdParty",
          "type": "address"
        }
      ],
      "name": "addVerifiedThirdParty",
      "outputs": [],
      "stateMutability": "nonpayable",
      "type": "function"
    },
    {
      "inputs": [
        {
          "internalType": "address",
          "name": "_student",
          "type": "address"
        },
        {
          "internalType": "uint256",
          "name": "_credits",
          "type": "uint256"
        }
      ],
      "name": "giveCredits",
      "outputs": [],
      "stateMutability": "nonpayable",
      "type": "function"
    },
    {
      "inputs": [
        {
          "internalType": "uint256",
          "name": "_semesterNumber",
          "type": "uint256"
        },
        {
          "internalType": "string",
          "name": "_content",
          "type": "string"
        },
        {
          "internalType": "address",
          "name": "_student",
          "type": "address"
        }
      ],
      "name": "submitMarksheet",
      "outputs": [],
      "stateMutability": "nonpayable",
      "type": "function"
    },
    {
      "inputs": [
        {
          "internalType": "uint256",
          "name": "_semesterNumber",
          "type": "uint256"
        }
      ],
      "name": "getMarksheet",
      "outputs": [
        {
          "internalType": "address",
          "name": "",
          "type": "address"
        },
        {
          "internalType": "address",
          "name": "",
          "type": "address"
        },
        {
          "internalType": "string",
          "name": "",
          "type": "string"
        }
      ],
      "stateMutability": "view",
      "type": "function",
      "constant": true
    },
    {
      "inputs": [
        {
          "internalType": "address",
          "name": "_newInstitute",
          "type": "address"
        }
      ],
      "name": "transferInstitute",
      "outputs": [],
      "stateMutability": "nonpayable",
      "type": "function"
    },
    {
      "inputs": [
        {
          "internalType": "address",
          "name": "_student",
          "type": "address"
        }
      ],
      "name": "getTotalCredits",
      "outputs": [
        {
          "internalType": "uint256",
          "name": "",
          "type": "uint256"
        }
      ],
      "stateMutability": "view",
      "type": "function",
      "constant": true
    },
    {
      "inputs": [
        {
          "internalType": "address",
          "name": "_student",
          "type": "address"
        },
        {
          "internalType": "string",
          "name": "_password",
          "type": "string"
        }
      ],
      "name": "studentLogin",
      "outputs": [
        {
          "internalType": "bool",
          "name": "",
          "type": "bool"
        }
      ],
      "stateMutability": "view",
      "type": "function",
      "constant": true
    },
    {
      "inputs": [
        {
          "internalType": "address",
          "name": "_institute",
          "type": "address"
        },
        {
          "internalType": "string",
          "name": "_password",
          "type": "string"
        }
      ],
      "name": "instituteLogin",
      "outputs": [
        {
          "internalType": "bool",
          "name": "",
          "type": "bool"
        }
      ],
      "stateMutability": "view",
      "type": "function",
      "constant": true
    }
  ],
  "bytecode": "0x6080604052603c60065534801561001557600080fd5b50613695806100256000396000f3fe608060405234801561001057600080fd5b506004361061014d5760003560e01c806360e7bb0d116100c3578063a51a18f41161007c578063a51a18f414610404578063a6c807a914610420578063beeab6ea14610455578063c7b0508f14610471578063cf704dad146104a1578063f0e7b7f5146104bd5761014d565b806360e7bb0d146103195780637e0e46b714610337578063852b86f61461036a578063861c170f1461039a5780638ee368e6146103cc5780639080dbcb146103e85761014d565b8063347979b411610115578063347979b41461020a57806336fdc8ea1461023a578063463f2c211461026a5780634e863f4414610286578063567d81e0146102b657806356c31f5a146102e95761014d565b80631b8c3d5b146101525780631cd1451d14610182578063240d5500146101a057806326ddbf24146101d05780632be9b167146101ec575b600080fd5b61016c600480360381019061016791906122b8565b6104d9565b6040516101799190612326565b60405180910390f35b61018a610518565b6040516101979190612350565b60405180910390f35b6101ba60048036038101906101b59190612397565b61051e565b6040516101c79190612326565b60405180910390f35b6101ea60048036038101906101e5919061250a565b610551565b005b6101f461089d565b6040516102019190612637565b60405180910390f35b610224600480360381019061021f9190612397565b61092b565b6040516102319190612350565b60405180910390f35b610254600480360381019061024f9190612659565b610943565b60405161026191906126d0565b60405180910390f35b610284600480360381019061027f91906126eb565b6109dd565b005b6102a0600480360381019061029b9190612397565b610cae565b6040516102ad91906127aa565b60405180910390f35b6102d060048036038101906102cb91906122b8565b610d4e565b6040516102e094939291906127cc565b60405180910390f35b61030360048036038101906102fe9190612397565b610e46565b6040516103109190612350565b60405180910390f35b610321610e8f565b60405161032e9190612350565b60405180910390f35b610351600480360381019061034c9190612397565b610e9c565b6040516103619493929190612818565b60405180910390f35b610384600480360381019061037f9190612659565b611084565b60405161039191906126d0565b60405180910390f35b6103b460048036038101906103af91906122b8565b61111d565b6040516103c393929190612872565b60405180910390f35b6103e660048036038101906103e19190612397565b61135b565b005b61040260048036038101906103fd91906128b0565b6115dd565b005b61041e600480360381019061041991906128f0565b611848565b005b61043a60048036038101906104359190612397565b61197e565b60405161044c969594939291906129ed565b60405180910390f35b61046f600480360381019061046a91906122b8565b611bfa565b005b61048b60048036038101906104869190612397565b611c04565b6040516104989190612637565b60405180910390f35b6104bb60048036038101906104b691906128b0565b611cd9565b005b6104d760048036038101906104d29190612a6a565b611f69565b005b600781815481106104e957600080fd5b906000526020600020016000915054906101000a900473ffffffffffffffffffffffffffffffffffffffff1681565b60065481565b60026020528060005260406000206000915054906101000a900473ffffffffffffffffffffffffffffffffffffffff1681565b60003390506000600260008473ffffffffffffffffffffffffffffffffffffffff1673ffffffffffffffffffffffffffffffffffffffff16815260200190815260200160002060009054906101000a900473ffffffffffffffffffffffffffffffffffffffff1690508073ffffffffffffffffffffffffffffffffffffffff168273ffffffffffffffffffffffffffffffffffffffff1614610628576040517f08c379a000000000000000000000000000000000000000000000000000000000815260040161061f90612b97565b60405180910390fd5b6001851015801561063a575060088511155b610679576040517f08c379a000000000000000000000000000000000000000000000000000000000815260040161067090612c03565b60405180910390fd5b600073ffffffffffffffffffffffffffffffffffffffff166005600087815260200190815260200160002060000160009054906101000a900473ffffffffffffffffffffffffffffffffffffffff1673ffffffffffffffffffffffffffffffffffffffff161461071e576040517f08c379a000000000000000000000000000000000000000000000000000000000815260040161071590612c95565b60405180910390fd5b60405180608001604052808373ffffffffffffffffffffffffffffffffffffffff1681526020018473ffffffffffffffffffffffffffffffffffffffff168152602001868152602001858152506005600087815260200190815260200160002060008201518160000160006101000a81548173ffffffffffffffffffffffffffffffffffffffff021916908373ffffffffffffffffffffffffffffffffffffffff16021790555060208201518160010160006101000a81548173ffffffffffffffffffffffffffffffffffffffff021916908373ffffffffffffffffffffffffffffffffffffffff16021790555060408201518160020155606082015181600301908161082b9190612ec1565b509050508273ffffffffffffffffffffffffffffffffffffffff168273ffffffffffffffffffffffffffffffffffffffff167ffe0f45d9cef40d9fe18bd4aeb81837ec459ba1812800f517ad44f480435f22e9878760405161088e929190612f93565b60405180910390a35050505050565b6060600780548060200260200160405190810160405280929190818152602001828054801561092157602002820191906000526020600020905b8160009054906101000a900473ffffffffffffffffffffffffffffffffffffffff1673ffffffffffffffffffffffffffffffffffffffff16815260200190600101908083116108d7575b5050505050905090565b60046020528060005260406000206000915090505481565b6000816040516020016109569190612fff565b60405160208183030381529060405280519060200120600160008573ffffffffffffffffffffffffffffffffffffffff1673ffffffffffffffffffffffffffffffffffffffff1681526020019081526020016000206005016040516020016109be9190613099565b6040516020818303038152906040528051906020012014905092915050565b60008111610a20576040517f08c379a0000000000000000000000000000000000000000000000000000000008152600401610a17906130fc565b60405180910390fd5b600060056000610a2f8561215e565b81526020019081526020016000206040518060800160405290816000820160009054906101000a900473ffffffffffffffffffffffffffffffffffffffff1673ffffffffffffffffffffffffffffffffffffffff1673ffffffffffffffffffffffffffffffffffffffff1681526020016001820160009054906101000a900473ffffffffffffffffffffffffffffffffffffffff1673ffffffffffffffffffffffffffffffffffffffff1673ffffffffffffffffffffffffffffffffffffffff16815260200160028201548152602001600382018054610b0e90612ce4565b80601f0160208091040260200160405190810160405280929190818152602001828054610b3a90612ce4565b8015610b875780601f10610b5c57610100808354040283529160200191610b87565b820191906000526020600020905b815481529060010190602001808311610b6a57829003601f168201915b5050505050815250509050600073ffffffffffffffffffffffffffffffffffffffff16816000015173ffffffffffffffffffffffffffffffffffffffff1603610c05576040517f08c379a0000000000000000000000000000000000000000000000000000000008152600401610bfc9061318e565b60405180910390fd5b81600460008573ffffffffffffffffffffffffffffffffffffffff1673ffffffffffffffffffffffffffffffffffffffff1681526020019081526020016000206000828254610c5491906131dd565b925050819055508273ffffffffffffffffffffffffffffffffffffffff167fe2362b716dfc80ccebb96675d8b9d930e9481b02dac7f0a4af5f1f77f05511f383604051610ca19190612350565b60405180910390a2505050565b60036020528060005260406000206000915090508054610ccd90612ce4565b80601f0160208091040260200160405190810160405280929190818152602001828054610cf990612ce4565b8015610d465780601f10610d1b57610100808354040283529160200191610d46565b820191906000526020600020905b815481529060010190602001808311610d2957829003601f168201915b505050505081565b60056020528060005260406000206000915090508060000160009054906101000a900473ffffffffffffffffffffffffffffffffffffffff16908060010160009054906101000a900473ffffffffffffffffffffffffffffffffffffffff1690806002015490806003018054610dc390612ce4565b80601f0160208091040260200160405190810160405280929190818152602001828054610def90612ce4565b8015610e3c5780601f10610e1157610100808354040283529160200191610e3c565b820191906000526020600020905b815481529060010190602001808311610e1f57829003601f168201915b5050505050905084565b6000600460008373ffffffffffffffffffffffffffffffffffffffff1673ffffffffffffffffffffffffffffffffffffffff168152602001908152602001600020549050919050565b6000600780549050905090565b6000602052806000526040600020600091509050806000018054610ebf90612ce4565b80601f0160208091040260200160405190810160405280929190818152602001828054610eeb90612ce4565b8015610f385780601f10610f0d57610100808354040283529160200191610f38565b820191906000526020600020905b815481529060010190602001808311610f1b57829003601f168201915b505050505090806001018054610f4d90612ce4565b80601f0160208091040260200160405190810160405280929190818152602001828054610f7990612ce4565b8015610fc65780601f10610f9b57610100808354040283529160200191610fc6565b820191906000526020600020905b815481529060010190602001808311610fa957829003601f168201915b5050505050908060020160009054906101000a900473ffffffffffffffffffffffffffffffffffffffff169080600501805461100190612ce4565b80601f016020809104026020016040519081016040528092919081815260200182805461102d90612ce4565b801561107a5780601f1061104f5761010080835404028352916020019161107a565b820191906000526020600020905b81548152906001019060200180831161105d57829003601f168201915b5050505050905084565b6000816040516020016110979190612fff565b604051602081830303815290604052805190602001206000808573ffffffffffffffffffffffffffffffffffffffff1673ffffffffffffffffffffffffffffffffffffffff1681526020019081526020016000206005016040516020016110fe9190613099565b6040516020818303038152906040528051906020012014905092915050565b60008060606000600560008681526020019081526020016000206040518060800160405290816000820160009054906101000a900473ffffffffffffffffffffffffffffffffffffffff1673ffffffffffffffffffffffffffffffffffffffff1673ffffffffffffffffffffffffffffffffffffffff1681526020016001820160009054906101000a900473ffffffffffffffffffffffffffffffffffffffff1673ffffffffffffffffffffffffffffffffffffffff1673ffffffffffffffffffffffffffffffffffffffff1681526020016002820154815260200160038201805461120890612ce4565b80601f016020809104026020016040519081016040528092919081815260200182805461123490612ce4565b80156112815780601f1061125657610100808354040283529160200191611281565b820191906000526020600020905b81548152906001019060200180831161126457829003601f168201915b50505050508152505090506000339050816020015173ffffffffffffffffffffffffffffffffffffffff168173ffffffffffffffffffffffffffffffffffffffff1614806112fe5750816000015173ffffffffffffffffffffffffffffffffffffffff168173ffffffffffffffffffffffffffffffffffffffff16145b61133d576040517f08c379a00000000000000000000000000000000000000000000000000000000081526004016113349061325d565b60405180910390fd5b81600001518260200151836060015194509450945050509193909250565b60003390506000600460008373ffffffffffffffffffffffffffffffffffffffff1673ffffffffffffffffffffffffffffffffffffffff1681526020019081526020016000205490506006548110156113e9576040517f08c379a00000000000000000000000000000000000000000000000000000000081526004016113e0906132ef565b60405180910390fd5b8273ffffffffffffffffffffffffffffffffffffffff16600260008473ffffffffffffffffffffffffffffffffffffffff1673ffffffffffffffffffffffffffffffffffffffff16815260200190815260200160002060009054906101000a900473ffffffffffffffffffffffffffffffffffffffff1673ffffffffffffffffffffffffffffffffffffffff16036114b6576040517f08c379a00000000000000000000000000000000000000000000000000000000081526004016114ad90613381565b60405180910390fd5b82600260008473ffffffffffffffffffffffffffffffffffffffff1673ffffffffffffffffffffffffffffffffffffffff16815260200190815260200160002060006101000a81548173ffffffffffffffffffffffffffffffffffffffff021916908373ffffffffffffffffffffffffffffffffffffffff16021790555080600460008473ffffffffffffffffffffffffffffffffffffffff1673ffffffffffffffffffffffffffffffffffffffff168152602001908152602001600020600082825461158391906133a1565b925050819055508173ffffffffffffffffffffffffffffffffffffffff167fe2362b716dfc80ccebb96675d8b9d930e9481b02dac7f0a4af5f1f77f05511f3826040516115d09190612350565b60405180910390a2505050565b818073ffffffffffffffffffffffffffffffffffffffff163373ffffffffffffffffffffffffffffffffffffffff161461164c576040517f08c379a000000000000000000000000000000000000000000000000000000000815260040161164390613421565b60405180910390fd5b600073ffffffffffffffffffffffffffffffffffffffff16600160008473ffffffffffffffffffffffffffffffffffffffff1673ffffffffffffffffffffffffffffffffffffffff16815260200190815260200160002060030160009054906101000a900473ffffffffffffffffffffffffffffffffffffffff1673ffffffffffffffffffffffffffffffffffffffff160361171d576040517f08c379a00000000000000000000000000000000000000000000000000000000081526004016117149061348d565b60405180910390fd5b60008060008573ffffffffffffffffffffffffffffffffffffffff1673ffffffffffffffffffffffffffffffffffffffff168152602001908152602001600020905080600401839080600181540180825580915050600190039060005260206000200160009091909190916101000a81548173ffffffffffffffffffffffffffffffffffffffff021916908373ffffffffffffffffffffffffffffffffffffffff16021790555083600260008573ffffffffffffffffffffffffffffffffffffffff1673ffffffffffffffffffffffffffffffffffffffff16815260200190815260200160002060006101000a81548173ffffffffffffffffffffffffffffffffffffffff021916908373ffffffffffffffffffffffffffffffffffffffff16021790555050505050565b6040518060c001604052808681526020018581526020018481526020018773ffffffffffffffffffffffffffffffffffffffff16815260200183815260200182815250600160008873ffffffffffffffffffffffffffffffffffffffff1673ffffffffffffffffffffffffffffffffffffffff16815260200190815260200160002060008201518160000190816118df9190612ec1565b506020820151816001015560408201518160020190816118ff9190612ec1565b5060608201518160030160006101000a81548173ffffffffffffffffffffffffffffffffffffffff021916908373ffffffffffffffffffffffffffffffffffffffff160217905550608082015181600401908161195c9190612ec1565b5060a08201518160050190816119729190612ec1565b50905050505050505050565b60016020528060005260406000206000915090508060000180546119a190612ce4565b80601f01602080910402602001604051908101604052809291908181526020018280546119cd90612ce4565b8015611a1a5780601f106119ef57610100808354040283529160200191611a1a565b820191906000526020600020905b8154815290600101906020018083116119fd57829003601f168201915b505050505090806001015490806002018054611a3590612ce4565b80601f0160208091040260200160405190810160405280929190818152602001828054611a6190612ce4565b8015611aae5780601f10611a8357610100808354040283529160200191611aae565b820191906000526020600020905b815481529060010190602001808311611a9157829003601f168201915b5050505050908060030160009054906101000a900473ffffffffffffffffffffffffffffffffffffffff1690806004018054611ae990612ce4565b80601f0160208091040260200160405190810160405280929190818152602001828054611b1590612ce4565b8015611b625780601f10611b3757610100808354040283529160200191611b62565b820191906000526020600020905b815481529060010190602001808311611b4557829003601f168201915b505050505090806005018054611b7790612ce4565b80601f0160208091040260200160405190810160405280929190818152602001828054611ba390612ce4565b8015611bf05780601f10611bc557610100808354040283529160200191611bf0565b820191906000526020600020905b815481529060010190602001808311611bd357829003601f168201915b5050505050905086565b8060068190555050565b606060008060008473ffffffffffffffffffffffffffffffffffffffff1673ffffffffffffffffffffffffffffffffffffffff168152602001908152602001600020905080600401805480602002602001604051908101604052809291908181526020018280548015611ccc57602002820191906000526020600020905b8160009054906101000a900473ffffffffffffffffffffffffffffffffffffffff1673ffffffffffffffffffffffffffffffffffffffff1681526020019060010190808311611c82575b5050505050915050919050565b3373ffffffffffffffffffffffffffffffffffffffff166000808473ffffffffffffffffffffffffffffffffffffffff1673ffffffffffffffffffffffffffffffffffffffff16815260200190815260200160002060020160009054906101000a900473ffffffffffffffffffffffffffffffffffffffff1673ffffffffffffffffffffffffffffffffffffffff1614611da8576040517f08c379a0000000000000000000000000000000000000000000000000000000008152600401611d9f9061351f565b60405180910390fd5b6000808373ffffffffffffffffffffffffffffffffffffffff1673ffffffffffffffffffffffffffffffffffffffff16815260200190815260200160002060030160008273ffffffffffffffffffffffffffffffffffffffff1673ffffffffffffffffffffffffffffffffffffffff16815260200190815260200160002060009054906101000a900460ff1615611e74576040517f08c379a0000000000000000000000000000000000000000000000000000000008152600401611e6b9061358b565b60405180910390fd5b60016000808473ffffffffffffffffffffffffffffffffffffffff1673ffffffffffffffffffffffffffffffffffffffff16815260200190815260200160002060030160008373ffffffffffffffffffffffffffffffffffffffff1673ffffffffffffffffffffffffffffffffffffffff16815260200190815260200160002060006101000a81548160ff0219169083151502179055508073ffffffffffffffffffffffffffffffffffffffff168273ffffffffffffffffffffffffffffffffffffffff167fbbab63930789b415a7adbc53f62693ca91f67778c33c2f62735312e75a8f551860405160405180910390a35050565b600073ffffffffffffffffffffffffffffffffffffffff166000808673ffffffffffffffffffffffffffffffffffffffff1673ffffffffffffffffffffffffffffffffffffffff16815260200190815260200160002060020160009054906101000a900473ffffffffffffffffffffffffffffffffffffffff1673ffffffffffffffffffffffffffffffffffffffff1614612039576040517f08c379a0000000000000000000000000000000000000000000000000000000008152600401612030906135f7565b60405180910390fd5b60008060008673ffffffffffffffffffffffffffffffffffffffff1673ffffffffffffffffffffffffffffffffffffffff16815260200190815260200160002090508381600001908161208c9190612ec1565b508281600101908161209e9190612ec1565b50848160020160006101000a81548173ffffffffffffffffffffffffffffffffffffffff021916908373ffffffffffffffffffffffffffffffffffffffff160217905550818160050190816120f39190612ec1565b506007859080600181540180825580915050600190039060005260206000200160009091909190916101000a81548173ffffffffffffffffffffffffffffffffffffffff021916908373ffffffffffffffffffffffffffffffffffffffff1602179055505050505050565b600080600090506000600190505b60088111612264578373ffffffffffffffffffffffffffffffffffffffff166005600083815260200190815260200160002060010160009054906101000a900473ffffffffffffffffffffffffffffffffffffffff1673ffffffffffffffffffffffffffffffffffffffff161480156122485750600073ffffffffffffffffffffffffffffffffffffffff166005600083815260200190815260200160002060000160009054906101000a900473ffffffffffffffffffffffffffffffffffffffff1673ffffffffffffffffffffffffffffffffffffffff1614155b15612251578091505b808061225c90613617565b91505061216c565b5080915050919050565b6000604051905090565b600080fd5b600080fd5b6000819050919050565b61229581612282565b81146122a057600080fd5b50565b6000813590506122b28161228c565b92915050565b6000602082840312156122ce576122cd612278565b5b60006122dc848285016122a3565b91505092915050565b600073ffffffffffffffffffffffffffffffffffffffff82169050919050565b6000612310826122e5565b9050919050565b61232081612305565b82525050565b600060208201905061233b6000830184612317565b92915050565b61234a81612282565b82525050565b60006020820190506123656000830184612341565b92915050565b61237481612305565b811461237f57600080fd5b50565b6000813590506123918161236b565b92915050565b6000602082840312156123ad576123ac612278565b5b60006123bb84828501612382565b91505092915050565b600080fd5b600080fd5b6000601f19601f8301169050919050565b7f4e487b7100000000000000000000000000000000000000000000000000000000600052604160045260246000fd5b612417826123ce565b810181811067ffffffffffffffff82111715612436576124356123df565b5b80604052505050565b600061244961226e565b9050612455828261240e565b919050565b600067ffffffffffffffff821115612475576124746123df565b5b61247e826123ce565b9050602081019050919050565b82818337600083830152505050565b60006124ad6124a88461245a565b61243f565b9050828152602081018484840111156124c9576124c86123c9565b5b6124d484828561248b565b509392505050565b600082601f8301126124f1576124f06123c4565b5b813561250184826020860161249a565b91505092915050565b60008060006060848603121561252357612522612278565b5b6000612531868287016122a3565b935050602084013567ffffffffffffffff8111156125525761255161227d565b5b61255e868287016124dc565b925050604061256f86828701612382565b9150509250925092565b600081519050919050565b600082825260208201905092915050565b6000819050602082019050919050565b6125ae81612305565b82525050565b60006125c083836125a5565b60208301905092915050565b6000602082019050919050565b60006125e482612579565b6125ee8185612584565b93506125f983612595565b8060005b8381101561262a57815161261188826125b4565b975061261c836125cc565b9250506001810190506125fd565b5085935050505092915050565b6000602082019050818103600083015261265181846125d9565b905092915050565b600080604083850312156126705761266f612278565b5b600061267e85828601612382565b925050602083013567ffffffffffffffff81111561269f5761269e61227d565b5b6126ab858286016124dc565b9150509250929050565b60008115159050919050565b6126ca816126b5565b82525050565b60006020820190506126e560008301846126c1565b92915050565b6000806040838503121561270257612701612278565b5b600061271085828601612382565b9250506020612721858286016122a3565b9150509250929050565b600081519050919050565b600082825260208201905092915050565b60005b8381101561276557808201518184015260208101905061274a565b60008484015250505050565b600061277c8261272b565b6127868185612736565b9350612796818560208601612747565b61279f816123ce565b840191505092915050565b600060208201905081810360008301526127c48184612771565b905092915050565b60006080820190506127e16000830187612317565b6127ee6020830186612317565b6127fb6040830185612341565b818103606083015261280d8184612771565b905095945050505050565b600060808201905081810360008301526128328187612771565b905081810360208301526128468186612771565b90506128556040830185612317565b81810360608301526128678184612771565b905095945050505050565b60006060820190506128876000830186612317565b6128946020830185612317565b81810360408301526128a68184612771565b9050949350505050565b600080604083850312156128c7576128c6612278565b5b60006128d585828601612382565b92505060206128e685828601612382565b9150509250929050565b60008060008060008060c0878903121561290d5761290c612278565b5b600061291b89828a01612382565b965050602087013567ffffffffffffffff81111561293c5761293b61227d565b5b61294889828a016124dc565b955050604061295989828a016122a3565b945050606087013567ffffffffffffffff81111561297a5761297961227d565b5b61298689828a016124dc565b935050608087013567ffffffffffffffff8111156129a7576129a661227d565b5b6129b389828a016124dc565b92505060a087013567ffffffffffffffff8111156129d4576129d361227d565b5b6129e089828a016124dc565b9150509295509295509295565b600060c0820190508181036000830152612a078189612771565b9050612a166020830188612341565b8181036040830152612a288187612771565b9050612a376060830186612317565b8181036080830152612a498185612771565b905081810360a0830152612a5d8184612771565b9050979650505050505050565b60008060008060808587031215612a8457612a83612278565b5b6000612a9287828801612382565b945050602085013567ffffffffffffffff811115612ab357612ab261227d565b5b612abf878288016124dc565b935050604085013567ffffffffffffffff811115612ae057612adf61227d565b5b612aec878288016124dc565b925050606085013567ffffffffffffffff811115612b0d57612b0c61227d565b5b612b19878288016124dc565b91505092959194509250565b7f43616c6c6572206973206e6f7420617574686f72697a656420746f207375626d60008201527f6974206d61726b736865657420666f7220746869732073747564656e74000000602082015250565b6000612b81603d83612736565b9150612b8c82612b25565b604082019050919050565b60006020820190508181036000830152612bb081612b74565b9050919050565b7f496e76616c69642073656d6573746572206e756d626572000000000000000000600082015250565b6000612bed601783612736565b9150612bf882612bb7565b602082019050919050565b60006020820190508181036000830152612c1c81612be0565b9050919050565b7f4d61726b736865657420616c7265616479207375626d697474656420666f722060008201527f746869732073656d657374657200000000000000000000000000000000000000602082015250565b6000612c7f602d83612736565b9150612c8a82612c23565b604082019050919050565b60006020820190508181036000830152612cae81612c72565b9050919050565b7f4e487b7100000000000000000000000000000000000000000000000000000000600052602260045260246000fd5b60006002820490506001821680612cfc57607f821691505b602082108103612d0f57612d0e612cb5565b5b50919050565b60008190508160005260206000209050919050565b60006020601f8301049050919050565b600082821b905092915050565b600060088302612d777fffffffffffffffffffffffffffffffffffffffffffffffffffffffffffffffff82612d3a565b612d818683612d3a565b95508019841693508086168417925050509392505050565b6000819050919050565b6000612dbe612db9612db484612282565b612d99565b612282565b9050919050565b6000819050919050565b612dd883612da3565b612dec612de482612dc5565b848454612d47565b825550505050565b600090565b612e01612df4565b612e0c818484612dcf565b505050565b5b81811015612e3057612e25600082612df9565b600181019050612e12565b5050565b601f821115612e7557612e4681612d15565b612e4f84612d2a565b81016020851015612e5e578190505b612e72612e6a85612d2a565b830182612e11565b50505b505050565b600082821c905092915050565b6000612e9860001984600802612e7a565b1980831691505092915050565b6000612eb18383612e87565b9150826002028217905092915050565b612eca8261272b565b67ffffffffffffffff811115612ee357612ee26123df565b5b612eed8254612ce4565b612ef8828285612e34565b600060209050601f831160018114612f2b5760008415612f19578287015190505b612f238582612ea5565b865550612f8b565b601f198416612f3986612d15565b60005b82811015612f6157848901518255600182019150602085019450602081019050612f3c565b86831015612f7e5784890151612f7a601f891682612e87565b8355505b6001600288020188555050505b505050505050565b6000604082019050612fa86000830185612341565b8181036020830152612fba8184612771565b90509392505050565b600081905092915050565b6000612fd98261272b565b612fe38185612fc3565b9350612ff3818560208601612747565b80840191505092915050565b600061300b8284612fce565b915081905092915050565b6000815461302381612ce4565b61302d8186612fc3565b94506001821660008114613048576001811461305d57613090565b60ff1983168652811515820286019350613090565b61306685612d15565b60005b8381101561308857815481890152600182019150602081019050613069565b838801955050505b50505092915050565b60006130a58284613016565b915081905092915050565b7f496e76616c6964206372656469747320616d6f756e7400000000000000000000600082015250565b60006130e6601683612736565b91506130f1826130b0565b602082019050919050565b60006020820190508181036000830152613115816130d9565b9050919050565b7f4e6f206d61726b7368656574207375626d697474656420666f7220746865207360008201527f747564656e740000000000000000000000000000000000000000000000000000602082015250565b6000613178602683612736565b91506131838261311c565b604082019050919050565b600060208201905081810360008301526131a78161316b565b9050919050565b7f4e487b7100000000000000000000000000000000000000000000000000000000600052601160045260246000fd5b60006131e882612282565b91506131f383612282565b925082820190508082111561320b5761320a6131ae565b5b92915050565b7f556e617574686f72697a65642061636365737300000000000000000000000000600082015250565b6000613247601383612736565b915061325282613211565b602082019050919050565b600060208201905081810360008301526132768161323a565b9050919050565b7f496e73756666696369656e74206372656469747320666f72207472616e73666560008201527f7200000000000000000000000000000000000000000000000000000000000000602082015250565b60006132d9602183612736565b91506132e48261327d565b604082019050919050565b60006020820190508181036000830152613308816132cc565b9050919050565b7f416c726561647920656e726f6c6c656420696e20746865206e657720696e737460008201527f6974757465000000000000000000000000000000000000000000000000000000602082015250565b600061336b602583612736565b91506133768261330f565b604082019050919050565b6000602082019050818103600083015261339a8161335e565b9050919050565b60006133ac82612282565b91506133b783612282565b92508282039050818111156133cf576133ce6131ae565b5b92915050565b7f43616c6c6572206973206e6f742074686520696e737469747574650000000000600082015250565b600061340b601b83612736565b9150613416826133d5565b602082019050919050565b6000602082019050818103600083015261343a816133fe565b9050919050565b7f53747564656e74206e6f74207265676973746572656400000000000000000000600082015250565b6000613477601683612736565b915061348282613441565b602082019050919050565b600060208201905081810360008301526134a68161346a565b9050919050565b7f4f6e6c7920696e737469747574652063616e206164642074686972642d70617260008201527f7479000000000000000000000000000000000000000000000000000000000000602082015250565b6000613509602283612736565b9150613514826134ad565b604082019050919050565b60006020820190508181036000830152613538816134fc565b9050919050565b7f54686972642d706172747920616c726561647920766572696669656400000000600082015250565b6000613575601c83612736565b91506135808261353f565b602082019050919050565b600060208201905081810360008301526135a481613568565b9050919050565b7f496e7374697475746520616c7265616479207265676973746572656400000000600082015250565b60006135e1601c83612736565b91506135ec826135ab565b602082019050919050565b60006020820190508181036000830152613610816135d4565b9050919050565b600061362282612282565b91507fffffffffffffffffffffffffffffffffffffffffffffffffffffffffffffffff8203613654576136536131ae565b5b60018201905091905056fea26469706673582212200ccd660b19e8a2bf1c43208bba01f6c050f903b3eeba2488defbba5b5c89ed3664736f6c63430008130033",
  "immutableReferences": {},
  "source": "// SPDX-License-Identifier: MIT\r\npragma solidity ^0.8.0;\r\n\r\ncontract CreditTransfer {\r\n    struct Student {\r\n        string name;\r\n        uint age;\r\n        string email;\r\n        address walletAddress;\r\n        string abcId;\r\n        string password;\r\n    }\r\n\r\n    struct Institute {\r\n        string name;\r\n        string location;\r\n        address walletAddress;\r\n        mapping(address => bool) verifiedThirdParties; // Mapping to store verified third-party addresses\r\n        address[] enrolledStudents; // Array to store enrolled students\r\n        string password;\r\n    }\r\n\r\n    struct Marksheet {\r\n        address institute;\r\n        address student;\r\n        uint semesterNumber;\r\n        string content; // IPFS hash or any other content\r\n    }\r\n\r\n    struct SemesterCompletion {\r\n        address student;\r\n        uint semesterNumber;\r\n        uint completionTimestamp;\r\n        bool verified;\r\n    }\r\n\r\n    mapping(address => Institute) public institutes; // Mapping to store Institute details\r\n    mapping(address => Student) public students; // Mapping to store Student details\r\n    mapping(address => address) public studentInstitute; // Mapping to store student's current institute\r\n    mapping(address => string) public studentABCIds; // Mapping to store ABC ID of students\r\n    mapping(address => uint) public studentCredits; // Mapping to store credits for each student\r\n    mapping(uint => Marksheet) public markSheets;\r\n\r\n    event SemesterCompleted(address indexed student, uint semesterNumber, uint completionTimestamp, bool verified);\r\n    event MarksheetSubmitted(address indexed institute, address indexed student, uint semesterNumber, string content);\r\n    event AdminApproval(uint semesterNumber, address indexed student);\r\n    event TransferCredits(address indexed student, uint credits);\r\n    event ThirdPartyVerified(address indexed institute, address indexed thirdParty);\r\n\r\n    uint public minCreditsRequiredForTransfer = 60; // Minimum credits required for transfer\r\n    address[] public instituteAddresses; // Array to store institute addresses\r\n\r\n    modifier onlyInstitute(address _institute) {\r\n        require(msg.sender == _institute, \"Caller is not the institute\");\r\n        _;\r\n    }\r\n\r\n    function setMinCreditsRequiredForTransfer(uint _minCredits) public {\r\n        minCreditsRequiredForTransfer = _minCredits;\r\n    }\r\n\r\n    function setStudentDetails(address _student, string memory _name, uint _age, string memory _email, string memory _abcId, string memory _password) public {\r\n        students[_student] = Student(_name, _age, _email, _student, _abcId, _password);\r\n    }\r\n\r\n    function setInstituteDetails(address _institute, string memory _name, string memory _location, string memory _password) public {\r\n        require(institutes[_institute].walletAddress == address(0), \"Institute already registered\");\r\n\r\n        Institute storage newInstitute = institutes[_institute];\r\n        newInstitute.name = _name;\r\n        newInstitute.location = _location;\r\n        newInstitute.walletAddress = _institute;\r\n        newInstitute.password = _password;\r\n        instituteAddresses.push(_institute); // Add new institute address to array\r\n    }\r\n\r\n    function getInstituteCount() public view returns (uint) {\r\n        return instituteAddresses.length;\r\n    }\r\n\r\n    function getInstituteAddresses() public view returns (address[] memory) {\r\n        return instituteAddresses;\r\n    }\r\n\r\n    function enrollStudent(address _institute, address _student) public onlyInstitute(_institute) {\r\n        require(students[_student].walletAddress != address(0), \"Student not registered\");\r\n\r\n        Institute storage institute = institutes[_institute];\r\n        institute.enrolledStudents.push(_student);\r\n        studentInstitute[_student] = _institute;\r\n    }\r\n\r\n    function getEnrolledStudents(address _institute) public view returns (address[] memory) {\r\n        Institute storage institute = institutes[_institute];\r\n        return institute.enrolledStudents;\r\n    }\r\n\r\n    function addVerifiedThirdParty(address _institute, address _thirdParty) public {\r\n        require(institutes[_institute].walletAddress == msg.sender, \"Only institute can add third-party\");\r\n        require(!institutes[_institute].verifiedThirdParties[_thirdParty], \"Third-party already verified\");\r\n\r\n        institutes[_institute].verifiedThirdParties[_thirdParty] = true;\r\n        emit ThirdPartyVerified(_institute, _thirdParty);\r\n    }\r\n\r\n    function giveCredits(address _student, uint _credits) public {\r\n        require(_credits > 0, \"Invalid credits amount\");\r\n\r\n        // Get the latest submitted marksheet for the student\r\n        Marksheet memory latestMarksheet = markSheets[getLatestSubmittedSemester(_student)];\r\n\r\n        // Check if the marksheet exists and is verified\r\n        require(latestMarksheet.institute != address(0), \"No marksheet submitted for the student\");\r\n\r\n        // Transfer the specified credits to the student\r\n        studentCredits[_student] += _credits;\r\n\r\n        // Emit an event indicating the transfer of credits\r\n        emit TransferCredits(_student, _credits);\r\n    }\r\n\r\n    function getLatestSubmittedSemester(address _student) internal view returns (uint) {\r\n        uint latestSemester = 0;\r\n        for (uint i = 1; i <= 8; i++) {\r\n            if (markSheets[i].student == _student && markSheets[i].institute != address(0)) {\r\n                latestSemester = i;\r\n            }\r\n        }\r\n        return latestSemester;\r\n    }\r\n\r\n    function submitMarksheet(uint _semesterNumber, string memory _content, address _student) public {\r\n        address instituteAddress = msg.sender;\r\n        address enrolledInstitute = studentInstitute[_student];\r\n\r\n        require(instituteAddress == enrolledInstitute, \"Caller is not authorized to submit marksheet for this student\");\r\n        require(_semesterNumber >= 1 && _semesterNumber <= 8, \"Invalid semester number\");\r\n\r\n        require(markSheets[_semesterNumber].institute == address(0), \"Marksheet already submitted for this semester\");\r\n\r\n        markSheets[_semesterNumber] = Marksheet(instituteAddress, _student, _semesterNumber, _content);\r\n\r\n        emit MarksheetSubmitted(instituteAddress, _student, _semesterNumber, _content);\r\n    }\r\n\r\n    function getMarksheet(uint _semesterNumber) public view returns (address, address, string memory) {\r\n        Marksheet memory marksheet = markSheets[_semesterNumber];\r\n        address studentAddress = msg.sender;\r\n\r\n        require(studentAddress == marksheet.student || studentAddress == marksheet.institute, \"Unauthorized access\");\r\n\r\n        return (marksheet.institute, marksheet.student, marksheet.content);\r\n    }\r\n\r\n    function transferInstitute(address _newInstitute) public {\r\n        address studentAddress = msg.sender;\r\n        uint totalCredits = studentCredits[studentAddress];\r\n        \r\n        require(totalCredits >= minCreditsRequiredForTransfer, \"Insufficient credits for transfer\");\r\n        require(studentInstitute[studentAddress] != _newInstitute, \"Already enrolled in the new institute\");\r\n\r\n        studentInstitute[studentAddress] = _newInstitute;\r\n\r\n        studentCredits[studentAddress] -= totalCredits; // Deduct credits upon transfer\r\n        emit TransferCredits(studentAddress, totalCredits); // Emit an event indicating the transfer of credits\r\n    }\r\n\r\n    function getTotalCredits(address _student) public view returns (uint) {\r\n        return studentCredits[_student];\r\n    }\r\n\r\n    function studentLogin(address _student, string memory _password) public view returns (bool) {\r\n        return keccak256(abi.encodePacked(students[_student].password)) == keccak256(abi.encodePacked(_password));\r\n    }\r\n\r\n    function instituteLogin(address _institute, string memory _password) public view returns (bool) {\r\n        return keccak256(abi.encodePacked(institutes[_institute].password)) == keccak256(abi.encodePacked(_password));\r\n    }\r\n}\r\n",
  "sourcePath": "C:\\Users\\adity\\Desktop\\Coding\\Major Project\\contracts\\CreditTransfer.sol",
  "compiler": {
    "name": "solc",
    "version": "0.8.19+commit.7dd6d404.Emscripten.clang"
  },
  "schemaVersion": "3.4.16",
  "updatedAt": "2024-05-01T15:59:08.009Z",
  "networkType": "ethereum",
  "devdoc": {
    "kind": "dev",
    "methods": {},
    "version": 1
  },
  "userdoc": {
    "kind": "user",
    "methods": {},
    "version": 1
  }
}