{
  "contractName": "CreditTransfer",
  "abi": [
    {
      "anonymous": false,
      "inputs": [
        {
          "indexed": false,
          "internalType": "uint256",
          "name": "semesterNumber",
          "type": "uint256"
        },
        {
          "indexed": true,
          "internalType": "address",
          "name": "student",
          "type": "address"
        }
      ],
      "name": "AdminApproval",
      "type": "event"
    },
    {
      "anonymous": false,
      "inputs": [
        {
          "indexed": true,
          "internalType": "address",
          "name": "institute",
          "type": "address"
        },
        {
          "indexed": true,
          "internalType": "address",
          "name": "student",
          "type": "address"
        },
        {
          "indexed": false,
          "internalType": "uint256",
          "name": "semesterNumber",
          "type": "uint256"
        },
        {
          "indexed": false,
          "internalType": "string",
          "name": "content",
          "type": "string"
        }
      ],
      "name": "MarksheetSubmitted",
      "type": "event"
    },
    {
      "anonymous": false,
      "inputs": [
        {
          "indexed": true,
          "internalType": "address",
          "name": "student",
          "type": "address"
        },
        {
          "indexed": false,
          "internalType": "uint256",
          "name": "semesterNumber",
          "type": "uint256"
        },
        {
          "indexed": false,
          "internalType": "uint256",
          "name": "completionTimestamp",
          "type": "uint256"
        },
        {
          "indexed": false,
          "internalType": "bool",
          "name": "verified",
          "type": "bool"
        }
      ],
      "name": "SemesterCompleted",
      "type": "event"
    },
    {
      "anonymous": false,
      "inputs": [
        {
          "indexed": true,
          "internalType": "address",
          "name": "institute",
          "type": "address"
        },
        {
          "indexed": true,
          "internalType": "address",
          "name": "thirdParty",
          "type": "address"
        }
      ],
      "name": "ThirdPartyVerified",
      "type": "event"
    },
    {
      "anonymous": false,
      "inputs": [
        {
          "indexed": true,
          "internalType": "address",
          "name": "student",
          "type": "address"
        },
        {
          "indexed": false,
          "internalType": "uint256",
          "name": "credits",
          "type": "uint256"
        }
      ],
      "name": "TransferCredits",
      "type": "event"
    },
    {
      "inputs": [
        {
          "internalType": "uint256",
          "name": "",
          "type": "uint256"
        }
      ],
      "name": "instituteAddresses",
      "outputs": [
        {
          "internalType": "address",
          "name": "",
          "type": "address"
        }
      ],
      "stateMutability": "view",
      "type": "function",
      "constant": true
    },
    {
      "inputs": [
        {
          "internalType": "address",
          "name": "",
          "type": "address"
        }
      ],
      "name": "institutes",
      "outputs": [
        {
          "internalType": "string",
          "name": "name",
          "type": "string"
        },
        {
          "internalType": "string",
          "name": "location",
          "type": "string"
        },
        {
          "internalType": "address",
          "name": "walletAddress",
          "type": "address"
        },
        {
          "internalType": "string",
          "name": "password",
          "type": "string"
        }
      ],
      "stateMutability": "view",
      "type": "function",
      "constant": true
    },
    {
      "inputs": [
        {
          "internalType": "uint256",
          "name": "",
          "type": "uint256"
        }
      ],
      "name": "markSheets",
      "outputs": [
        {
          "internalType": "address",
          "name": "institute",
          "type": "address"
        },
        {
          "internalType": "address",
          "name": "student",
          "type": "address"
        },
        {
          "internalType": "uint256",
          "name": "semesterNumber",
          "type": "uint256"
        },
        {
          "internalType": "string",
          "name": "content",
          "type": "string"
        },
        {
          "internalType": "bool",
          "name": "creditsGiven",
          "type": "bool"
        }
      ],
      "stateMutability": "view",
      "type": "function",
      "constant": true
    },
    {
      "inputs": [],
      "name": "minCreditsRequiredForTransfer",
      "outputs": [
        {
          "internalType": "uint256",
          "name": "",
          "type": "uint256"
        }
      ],
      "stateMutability": "view",
      "type": "function",
      "constant": true
    },
    {
      "inputs": [
        {
          "internalType": "address",
          "name": "",
          "type": "address"
        }
      ],
      "name": "studentABCIds",
      "outputs": [
        {
          "internalType": "string",
          "name": "",
          "type": "string"
        }
      ],
      "stateMutability": "view",
      "type": "function",
      "constant": true
    },
    {
      "inputs": [
        {
          "internalType": "address",
          "name": "",
          "type": "address"
        }
      ],
      "name": "studentCredits",
      "outputs": [
        {
          "internalType": "uint256",
          "name": "",
          "type": "uint256"
        }
      ],
      "stateMutability": "view",
      "type": "function",
      "constant": true
    },
    {
      "inputs": [
        {
          "internalType": "address",
          "name": "",
          "type": "address"
        }
      ],
      "name": "studentInstitute",
      "outputs": [
        {
          "internalType": "address",
          "name": "",
          "type": "address"
        }
      ],
      "stateMutability": "view",
      "type": "function",
      "constant": true
    },
    {
      "inputs": [
        {
          "internalType": "address",
          "name": "",
          "type": "address"
        }
      ],
      "name": "students",
      "outputs": [
        {
          "internalType": "string",
          "name": "name",
          "type": "string"
        },
        {
          "internalType": "uint256",
          "name": "age",
          "type": "uint256"
        },
        {
          "internalType": "string",
          "name": "email",
          "type": "string"
        },
        {
          "internalType": "address",
          "name": "walletAddress",
          "type": "address"
        },
        {
          "internalType": "string",
          "name": "abcId",
          "type": "string"
        },
        {
          "internalType": "string",
          "name": "password",
          "type": "string"
        }
      ],
      "stateMutability": "view",
      "type": "function",
      "constant": true
    },
    {
      "inputs": [
        {
          "internalType": "uint256",
          "name": "_minCredits",
          "type": "uint256"
        }
      ],
      "name": "setMinCreditsRequiredForTransfer",
      "outputs": [],
      "stateMutability": "nonpayable",
      "type": "function"
    },
    {
      "inputs": [
        {
          "internalType": "address",
          "name": "_student",
          "type": "address"
        },
        {
          "internalType": "string",
          "name": "_name",
          "type": "string"
        },
        {
          "internalType": "uint256",
          "name": "_age",
          "type": "uint256"
        },
        {
          "internalType": "string",
          "name": "_email",
          "type": "string"
        },
        {
          "internalType": "string",
          "name": "_abcId",
          "type": "string"
        },
        {
          "internalType": "string",
          "name": "_password",
          "type": "string"
        }
      ],
      "name": "setStudentDetails",
      "outputs": [],
      "stateMutability": "nonpayable",
      "type": "function"
    },
    {
      "inputs": [
        {
          "internalType": "address",
          "name": "_institute",
          "type": "address"
        },
        {
          "internalType": "string",
          "name": "_name",
          "type": "string"
        },
        {
          "internalType": "string",
          "name": "_location",
          "type": "string"
        },
        {
          "internalType": "string",
          "name": "_password",
          "type": "string"
        }
      ],
      "name": "setInstituteDetails",
      "outputs": [],
      "stateMutability": "nonpayable",
      "type": "function"
    },
    {
      "inputs": [],
      "name": "getInstituteCount",
      "outputs": [
        {
          "internalType": "uint256",
          "name": "",
          "type": "uint256"
        }
      ],
      "stateMutability": "view",
      "type": "function",
      "constant": true
    },
    {
      "inputs": [],
      "name": "getInstituteAddresses",
      "outputs": [
        {
          "internalType": "address[]",
          "name": "",
          "type": "address[]"
        }
      ],
      "stateMutability": "view",
      "type": "function",
      "constant": true
    },
    {
      "inputs": [
        {
          "internalType": "address",
          "name": "_institute",
          "type": "address"
        },
        {
          "internalType": "address",
          "name": "_student",
          "type": "address"
        }
      ],
      "name": "enrollStudent",
      "outputs": [],
      "stateMutability": "nonpayable",
      "type": "function"
    },
    {
      "inputs": [
        {
          "internalType": "address",
          "name": "_institute",
          "type": "address"
        }
      ],
      "name": "getEnrolledStudents",
      "outputs": [
        {
          "internalType": "address[]",
          "name": "",
          "type": "address[]"
        }
      ],
      "stateMutability": "view",
      "type": "function",
      "constant": true
    },
    {
      "inputs": [
        {
          "internalType": "address",
          "name": "_institute",
          "type": "address"
        },
        {
          "internalType": "address",
          "name": "_thirdParty",
          "type": "address"
        }
      ],
      "name": "addVerifiedThirdParty",
      "outputs": [],
      "stateMutability": "nonpayable",
      "type": "function"
    },
    {
      "inputs": [
        {
          "internalType": "address",
          "name": "_student",
          "type": "address"
        },
        {
          "internalType": "uint256",
          "name": "_credits",
          "type": "uint256"
        }
      ],
      "name": "giveCredits",
      "outputs": [],
      "stateMutability": "nonpayable",
      "type": "function"
    },
    {
      "inputs": [
        {
          "internalType": "uint256",
          "name": "_semesterNumber",
          "type": "uint256"
        },
        {
          "internalType": "string",
          "name": "_content",
          "type": "string"
        },
        {
          "internalType": "address",
          "name": "_student",
          "type": "address"
        }
      ],
      "name": "submitMarksheet",
      "outputs": [],
      "stateMutability": "nonpayable",
      "type": "function"
    },
    {
      "inputs": [
        {
          "internalType": "uint256",
          "name": "_semesterNumber",
          "type": "uint256"
        }
      ],
      "name": "getMarksheet",
      "outputs": [
        {
          "internalType": "address",
          "name": "",
          "type": "address"
        },
        {
          "internalType": "address",
          "name": "",
          "type": "address"
        },
        {
          "internalType": "string",
          "name": "",
          "type": "string"
        },
        {
          "internalType": "bool",
          "name": "",
          "type": "bool"
        }
      ],
      "stateMutability": "view",
      "type": "function",
      "constant": true
    },
    {
      "inputs": [
        {
          "internalType": "uint256",
          "name": "_semesterNumber",
          "type": "uint256"
        }
      ],
      "name": "creditsGivenForMarksheet",
      "outputs": [
        {
          "internalType": "bool",
          "name": "",
          "type": "bool"
        }
      ],
      "stateMutability": "view",
      "type": "function",
      "constant": true
    },
    {
      "inputs": [
        {
          "internalType": "address",
          "name": "_newInstitute",
          "type": "address"
        }
      ],
      "name": "transferInstitute",
      "outputs": [],
      "stateMutability": "nonpayable",
      "type": "function"
    },
    {
      "inputs": [
        {
          "internalType": "address",
          "name": "_student",
          "type": "address"
        }
      ],
      "name": "getTotalCredits",
      "outputs": [
        {
          "internalType": "uint256",
          "name": "",
          "type": "uint256"
        }
      ],
      "stateMutability": "view",
      "type": "function",
      "constant": true
    },
    {
      "inputs": [
        {
          "internalType": "address",
          "name": "_student",
          "type": "address"
        },
        {
          "internalType": "string",
          "name": "_password",
          "type": "string"
        }
      ],
      "name": "studentLogin",
      "outputs": [
        {
          "internalType": "bool",
          "name": "",
          "type": "bool"
        }
      ],
      "stateMutability": "view",
      "type": "function",
      "constant": true
    },
    {
      "inputs": [
        {
          "internalType": "address",
          "name": "_institute",
          "type": "address"
        },
        {
          "internalType": "string",
          "name": "_password",
          "type": "string"
        }
      ],
      "name": "instituteLogin",
      "outputs": [
        {
          "internalType": "bool",
          "name": "",
          "type": "bool"
        }
      ],
      "stateMutability": "view",
      "type": "function",
      "constant": true
    }
  ],
  "bytecode": "0x6080604052603c60065534801561001557600080fd5b5061381f806100256000396000f3fe608060405234801561001057600080fd5b50600436106101585760003560e01c806375a6b167116100c3578063a51a18f41161007c578063a51a18f414610441578063a6c807a91461045d578063beeab6ea14610492578063c7b0508f146104ae578063cf704dad146104de578063f0e7b7f5146104fa57610158565b806375a6b167146103435780637e0e46b714610373578063852b86f6146103a6578063861c170f146103d65780638ee368e6146104095780639080dbcb1461042557610158565b806336fdc8ea1161011557806336fdc8ea14610245578063463f2c21146102755780634e863f4414610291578063567d81e0146102c157806356c31f5a146102f557806360e7bb0d1461032557610158565b80631b8c3d5b1461015d5780631cd1451d1461018d578063240d5500146101ab57806326ddbf24146101db5780632be9b167146101f7578063347979b414610215575b600080fd5b61017760048036038101906101729190612492565b610516565b6040516101849190612500565b60405180910390f35b610195610555565b6040516101a2919061252a565b60405180910390f35b6101c560048036038101906101c09190612571565b61055b565b6040516101d29190612500565b60405180910390f35b6101f560048036038101906101f091906126e4565b61058e565b005b6101ff610903565b60405161020c9190612811565b60405180910390f35b61022f600480360381019061022a9190612571565b610991565b60405161023c919061252a565b60405180910390f35b61025f600480360381019061025a9190612833565b6109a9565b60405161026c91906128aa565b60405180910390f35b61028f600480360381019061028a91906128c5565b610a43565b005b6102ab60048036038101906102a69190612571565b610d2f565b6040516102b89190612984565b60405180910390f35b6102db60048036038101906102d69190612492565b610dcf565b6040516102ec9594939291906129a6565b60405180910390f35b61030f600480360381019061030a9190612571565b610eda565b60405161031c919061252a565b60405180910390f35b61032d610f23565b60405161033a919061252a565b60405180910390f35b61035d60048036038101906103589190612492565b610f30565b60405161036a91906128aa565b60405180910390f35b61038d60048036038101906103889190612571565b6110c3565b60405161039d9493929190612a00565b60405180910390f35b6103c060048036038101906103bb9190612833565b6112ab565b6040516103cd91906128aa565b60405180910390f35b6103f060048036038101906103eb9190612492565b611344565b6040516104009493929190612a5a565b60405180910390f35b610423600480360381019061041e9190612571565b6115a5565b005b61043f600480360381019061043a9190612aa6565b611827565b005b61045b60048036038101906104569190612ae6565b611a22565b005b61047760048036038101906104729190612571565b611b58565b60405161048996959493929190612be3565b60405180910390f35b6104ac60048036038101906104a79190612492565b611dd4565b005b6104c860048036038101906104c39190612571565b611dde565b6040516104d59190612811565b60405180910390f35b6104f860048036038101906104f39190612aa6565b611eb3565b005b610514600480360381019061050f9190612c60565b612143565b005b6007818154811061052657600080fd5b906000526020600020016000915054906101000a900473ffffffffffffffffffffffffffffffffffffffff1681565b60065481565b60026020528060005260406000206000915054906101000a900473ffffffffffffffffffffffffffffffffffffffff1681565b60003390506000600260008473ffffffffffffffffffffffffffffffffffffffff1673ffffffffffffffffffffffffffffffffffffffff16815260200190815260200160002060009054906101000a900473ffffffffffffffffffffffffffffffffffffffff1690508073ffffffffffffffffffffffffffffffffffffffff168273ffffffffffffffffffffffffffffffffffffffff1614610665576040517f08c379a000000000000000000000000000000000000000000000000000000000815260040161065c90612d8d565b60405180910390fd5b60018510158015610677575060088511155b6106b6576040517f08c379a00000000000000000000000000000000000000000000000000000000081526004016106ad90612df9565b60405180910390fd5b600073ffffffffffffffffffffffffffffffffffffffff166005600087815260200190815260200160002060000160009054906101000a900473ffffffffffffffffffffffffffffffffffffffff1673ffffffffffffffffffffffffffffffffffffffff161461075b576040517f08c379a000000000000000000000000000000000000000000000000000000000815260040161075290612e8b565b60405180910390fd5b6040518060a001604052808373ffffffffffffffffffffffffffffffffffffffff1681526020018473ffffffffffffffffffffffffffffffffffffffff168152602001868152602001858152602001600015158152506005600087815260200190815260200160002060008201518160000160006101000a81548173ffffffffffffffffffffffffffffffffffffffff021916908373ffffffffffffffffffffffffffffffffffffffff16021790555060208201518160010160006101000a81548173ffffffffffffffffffffffffffffffffffffffff021916908373ffffffffffffffffffffffffffffffffffffffff16021790555060408201518160020155606082015181600301908161087191906130b7565b5060808201518160040160006101000a81548160ff0219169083151502179055509050508273ffffffffffffffffffffffffffffffffffffffff168273ffffffffffffffffffffffffffffffffffffffff167ffe0f45d9cef40d9fe18bd4aeb81837ec459ba1812800f517ad44f480435f22e987876040516108f4929190613189565b60405180910390a35050505050565b6060600780548060200260200160405190810160405280929190818152602001828054801561098757602002820191906000526020600020905b8160009054906101000a900473ffffffffffffffffffffffffffffffffffffffff1673ffffffffffffffffffffffffffffffffffffffff168152602001906001019080831161093d575b5050505050905090565b60046020528060005260406000206000915090505481565b6000816040516020016109bc91906131f5565b60405160208183030381529060405280519060200120600160008573ffffffffffffffffffffffffffffffffffffffff1673ffffffffffffffffffffffffffffffffffffffff168152602001908152602001600020600501604051602001610a24919061328f565b6040516020818303038152906040528051906020012014905092915050565b60008111610a86576040517f08c379a0000000000000000000000000000000000000000000000000000000008152600401610a7d906132f2565b60405180910390fd5b600060056000610a9585612338565b81526020019081526020016000206040518060a00160405290816000820160009054906101000a900473ffffffffffffffffffffffffffffffffffffffff1673ffffffffffffffffffffffffffffffffffffffff1673ffffffffffffffffffffffffffffffffffffffff1681526020016001820160009054906101000a900473ffffffffffffffffffffffffffffffffffffffff1673ffffffffffffffffffffffffffffffffffffffff1673ffffffffffffffffffffffffffffffffffffffff16815260200160028201548152602001600382018054610b7490612eda565b80601f0160208091040260200160405190810160405280929190818152602001828054610ba090612eda565b8015610bed5780601f10610bc257610100808354040283529160200191610bed565b820191906000526020600020905b815481529060010190602001808311610bd057829003601f168201915b505050505081526020016004820160009054906101000a900460ff1615151515815250509050600073ffffffffffffffffffffffffffffffffffffffff16816000015173ffffffffffffffffffffffffffffffffffffffff1603610c86576040517f08c379a0000000000000000000000000000000000000000000000000000000008152600401610c7d90613384565b60405180910390fd5b81600460008573ffffffffffffffffffffffffffffffffffffffff1673ffffffffffffffffffffffffffffffffffffffff1681526020019081526020016000206000828254610cd591906133d3565b925050819055508273ffffffffffffffffffffffffffffffffffffffff167fe2362b716dfc80ccebb96675d8b9d930e9481b02dac7f0a4af5f1f77f05511f383604051610d22919061252a565b60405180910390a2505050565b60036020528060005260406000206000915090508054610d4e90612eda565b80601f0160208091040260200160405190810160405280929190818152602001828054610d7a90612eda565b8015610dc75780601f10610d9c57610100808354040283529160200191610dc7565b820191906000526020600020905b815481529060010190602001808311610daa57829003601f168201915b505050505081565b60056020528060005260406000206000915090508060000160009054906101000a900473ffffffffffffffffffffffffffffffffffffffff16908060010160009054906101000a900473ffffffffffffffffffffffffffffffffffffffff1690806002015490806003018054610e4490612eda565b80601f0160208091040260200160405190810160405280929190818152602001828054610e7090612eda565b8015610ebd5780601f10610e9257610100808354040283529160200191610ebd565b820191906000526020600020905b815481529060010190602001808311610ea057829003601f168201915b5050505050908060040160009054906101000a900460ff16905085565b6000600460008373ffffffffffffffffffffffffffffffffffffffff1673ffffffffffffffffffffffffffffffffffffffff168152602001908152602001600020549050919050565b6000600780549050905090565b600080600560008481526020019081526020016000206040518060a00160405290816000820160009054906101000a900473ffffffffffffffffffffffffffffffffffffffff1673ffffffffffffffffffffffffffffffffffffffff1673ffffffffffffffffffffffffffffffffffffffff1681526020016001820160009054906101000a900473ffffffffffffffffffffffffffffffffffffffff1673ffffffffffffffffffffffffffffffffffffffff1673ffffffffffffffffffffffffffffffffffffffff1681526020016002820154815260200160038201805461101790612eda565b80601f016020809104026020016040519081016040528092919081815260200182805461104390612eda565b80156110905780601f1061106557610100808354040283529160200191611090565b820191906000526020600020905b81548152906001019060200180831161107357829003601f168201915b505050505081526020016004820160009054906101000a900460ff16151515158152505090508060800151915050919050565b60006020528060005260406000206000915090508060000180546110e690612eda565b80601f016020809104026020016040519081016040528092919081815260200182805461111290612eda565b801561115f5780601f106111345761010080835404028352916020019161115f565b820191906000526020600020905b81548152906001019060200180831161114257829003601f168201915b50505050509080600101805461117490612eda565b80601f01602080910402602001604051908101604052809291908181526020018280546111a090612eda565b80156111ed5780601f106111c2576101008083540402835291602001916111ed565b820191906000526020600020905b8154815290600101906020018083116111d057829003601f168201915b5050505050908060020160009054906101000a900473ffffffffffffffffffffffffffffffffffffffff169080600501805461122890612eda565b80601f016020809104026020016040519081016040528092919081815260200182805461125490612eda565b80156112a15780601f10611276576101008083540402835291602001916112a1565b820191906000526020600020905b81548152906001019060200180831161128457829003601f168201915b5050505050905084565b6000816040516020016112be91906131f5565b604051602081830303815290604052805190602001206000808573ffffffffffffffffffffffffffffffffffffffff1673ffffffffffffffffffffffffffffffffffffffff168152602001908152602001600020600501604051602001611325919061328f565b6040516020818303038152906040528051906020012014905092915050565b6000806060600080600560008781526020019081526020016000206040518060a00160405290816000820160009054906101000a900473ffffffffffffffffffffffffffffffffffffffff1673ffffffffffffffffffffffffffffffffffffffff1673ffffffffffffffffffffffffffffffffffffffff1681526020016001820160009054906101000a900473ffffffffffffffffffffffffffffffffffffffff1673ffffffffffffffffffffffffffffffffffffffff1673ffffffffffffffffffffffffffffffffffffffff1681526020016002820154815260200160038201805461143090612eda565b80601f016020809104026020016040519081016040528092919081815260200182805461145c90612eda565b80156114a95780601f1061147e576101008083540402835291602001916114a9565b820191906000526020600020905b81548152906001019060200180831161148c57829003601f168201915b505050505081526020016004820160009054906101000a900460ff16151515158152505090506000339050816020015173ffffffffffffffffffffffffffffffffffffffff168173ffffffffffffffffffffffffffffffffffffffff1614806115415750816000015173ffffffffffffffffffffffffffffffffffffffff168173ffffffffffffffffffffffffffffffffffffffff16145b611580576040517f08c379a000000000000000000000000000000000000000000000000000000000815260040161157790613453565b60405180910390fd5b8160000151826020015183606001518460800151955095509550955050509193509193565b60003390506000600460008373ffffffffffffffffffffffffffffffffffffffff1673ffffffffffffffffffffffffffffffffffffffff168152602001908152602001600020549050600654811015611633576040517f08c379a000000000000000000000000000000000000000000000000000000000815260040161162a906134e5565b60405180910390fd5b8273ffffffffffffffffffffffffffffffffffffffff16600260008473ffffffffffffffffffffffffffffffffffffffff1673ffffffffffffffffffffffffffffffffffffffff16815260200190815260200160002060009054906101000a900473ffffffffffffffffffffffffffffffffffffffff1673ffffffffffffffffffffffffffffffffffffffff1603611700576040517f08c379a00000000000000000000000000000000000000000000000000000000081526004016116f790613577565b60405180910390fd5b82600260008473ffffffffffffffffffffffffffffffffffffffff1673ffffffffffffffffffffffffffffffffffffffff16815260200190815260200160002060006101000a81548173ffffffffffffffffffffffffffffffffffffffff021916908373ffffffffffffffffffffffffffffffffffffffff16021790555080600460008473ffffffffffffffffffffffffffffffffffffffff1673ffffffffffffffffffffffffffffffffffffffff16815260200190815260200160002060008282546117cd9190613597565b925050819055508173ffffffffffffffffffffffffffffffffffffffff167fe2362b716dfc80ccebb96675d8b9d930e9481b02dac7f0a4af5f1f77f05511f38260405161181a919061252a565b60405180910390a2505050565b600073ffffffffffffffffffffffffffffffffffffffff16600160008373ffffffffffffffffffffffffffffffffffffffff1673ffffffffffffffffffffffffffffffffffffffff16815260200190815260200160002060030160009054906101000a900473ffffffffffffffffffffffffffffffffffffffff1673ffffffffffffffffffffffffffffffffffffffff16036118f8576040517f08c379a00000000000000000000000000000000000000000000000000000000081526004016118ef90613617565b60405180910390fd5b60008060008473ffffffffffffffffffffffffffffffffffffffff1673ffffffffffffffffffffffffffffffffffffffff168152602001908152602001600020905080600401829080600181540180825580915050600190039060005260206000200160009091909190916101000a81548173ffffffffffffffffffffffffffffffffffffffff021916908373ffffffffffffffffffffffffffffffffffffffff16021790555082600260008473ffffffffffffffffffffffffffffffffffffffff1673ffffffffffffffffffffffffffffffffffffffff16815260200190815260200160002060006101000a81548173ffffffffffffffffffffffffffffffffffffffff021916908373ffffffffffffffffffffffffffffffffffffffff160217905550505050565b6040518060c001604052808681526020018581526020018481526020018773ffffffffffffffffffffffffffffffffffffffff16815260200183815260200182815250600160008873ffffffffffffffffffffffffffffffffffffffff1673ffffffffffffffffffffffffffffffffffffffff1681526020019081526020016000206000820151816000019081611ab991906130b7565b50602082015181600101556040820151816002019081611ad991906130b7565b5060608201518160030160006101000a81548173ffffffffffffffffffffffffffffffffffffffff021916908373ffffffffffffffffffffffffffffffffffffffff1602179055506080820151816004019081611b3691906130b7565b5060a0820151816005019081611b4c91906130b7565b50905050505050505050565b6001602052806000526040600020600091509050806000018054611b7b90612eda565b80601f0160208091040260200160405190810160405280929190818152602001828054611ba790612eda565b8015611bf45780601f10611bc957610100808354040283529160200191611bf4565b820191906000526020600020905b815481529060010190602001808311611bd757829003601f168201915b505050505090806001015490806002018054611c0f90612eda565b80601f0160208091040260200160405190810160405280929190818152602001828054611c3b90612eda565b8015611c885780601f10611c5d57610100808354040283529160200191611c88565b820191906000526020600020905b815481529060010190602001808311611c6b57829003601f168201915b5050505050908060030160009054906101000a900473ffffffffffffffffffffffffffffffffffffffff1690806004018054611cc390612eda565b80601f0160208091040260200160405190810160405280929190818152602001828054611cef90612eda565b8015611d3c5780601f10611d1157610100808354040283529160200191611d3c565b820191906000526020600020905b815481529060010190602001808311611d1f57829003601f168201915b505050505090806005018054611d5190612eda565b80601f0160208091040260200160405190810160405280929190818152602001828054611d7d90612eda565b8015611dca5780601f10611d9f57610100808354040283529160200191611dca565b820191906000526020600020905b815481529060010190602001808311611dad57829003601f168201915b5050505050905086565b8060068190555050565b606060008060008473ffffffffffffffffffffffffffffffffffffffff1673ffffffffffffffffffffffffffffffffffffffff168152602001908152602001600020905080600401805480602002602001604051908101604052809291908181526020018280548015611ea657602002820191906000526020600020905b8160009054906101000a900473ffffffffffffffffffffffffffffffffffffffff1673ffffffffffffffffffffffffffffffffffffffff1681526020019060010190808311611e5c575b5050505050915050919050565b3373ffffffffffffffffffffffffffffffffffffffff166000808473ffffffffffffffffffffffffffffffffffffffff1673ffffffffffffffffffffffffffffffffffffffff16815260200190815260200160002060020160009054906101000a900473ffffffffffffffffffffffffffffffffffffffff1673ffffffffffffffffffffffffffffffffffffffff1614611f82576040517f08c379a0000000000000000000000000000000000000000000000000000000008152600401611f79906136a9565b60405180910390fd5b6000808373ffffffffffffffffffffffffffffffffffffffff1673ffffffffffffffffffffffffffffffffffffffff16815260200190815260200160002060030160008273ffffffffffffffffffffffffffffffffffffffff1673ffffffffffffffffffffffffffffffffffffffff16815260200190815260200160002060009054906101000a900460ff161561204e576040517f08c379a000000000000000000000000000000000000000000000000000000000815260040161204590613715565b60405180910390fd5b60016000808473ffffffffffffffffffffffffffffffffffffffff1673ffffffffffffffffffffffffffffffffffffffff16815260200190815260200160002060030160008373ffffffffffffffffffffffffffffffffffffffff1673ffffffffffffffffffffffffffffffffffffffff16815260200190815260200160002060006101000a81548160ff0219169083151502179055508073ffffffffffffffffffffffffffffffffffffffff168273ffffffffffffffffffffffffffffffffffffffff167fbbab63930789b415a7adbc53f62693ca91f67778c33c2f62735312e75a8f551860405160405180910390a35050565b600073ffffffffffffffffffffffffffffffffffffffff166000808673ffffffffffffffffffffffffffffffffffffffff1673ffffffffffffffffffffffffffffffffffffffff16815260200190815260200160002060020160009054906101000a900473ffffffffffffffffffffffffffffffffffffffff1673ffffffffffffffffffffffffffffffffffffffff1614612213576040517f08c379a000000000000000000000000000000000000000000000000000000000815260040161220a90613781565b60405180910390fd5b60008060008673ffffffffffffffffffffffffffffffffffffffff1673ffffffffffffffffffffffffffffffffffffffff16815260200190815260200160002090508381600001908161226691906130b7565b508281600101908161227891906130b7565b50848160020160006101000a81548173ffffffffffffffffffffffffffffffffffffffff021916908373ffffffffffffffffffffffffffffffffffffffff160217905550818160050190816122cd91906130b7565b506007859080600181540180825580915050600190039060005260206000200160009091909190916101000a81548173ffffffffffffffffffffffffffffffffffffffff021916908373ffffffffffffffffffffffffffffffffffffffff1602179055505050505050565b600080600090506000600190505b6008811161243e578373ffffffffffffffffffffffffffffffffffffffff166005600083815260200190815260200160002060010160009054906101000a900473ffffffffffffffffffffffffffffffffffffffff1673ffffffffffffffffffffffffffffffffffffffff161480156124225750600073ffffffffffffffffffffffffffffffffffffffff166005600083815260200190815260200160002060000160009054906101000a900473ffffffffffffffffffffffffffffffffffffffff1673ffffffffffffffffffffffffffffffffffffffff1614155b1561242b578091505b8080612436906137a1565b915050612346565b5080915050919050565b6000604051905090565b600080fd5b600080fd5b6000819050919050565b61246f8161245c565b811461247a57600080fd5b50565b60008135905061248c81612466565b92915050565b6000602082840312156124a8576124a7612452565b5b60006124b68482850161247d565b91505092915050565b600073ffffffffffffffffffffffffffffffffffffffff82169050919050565b60006124ea826124bf565b9050919050565b6124fa816124df565b82525050565b600060208201905061251560008301846124f1565b92915050565b6125248161245c565b82525050565b600060208201905061253f600083018461251b565b92915050565b61254e816124df565b811461255957600080fd5b50565b60008135905061256b81612545565b92915050565b60006020828403121561258757612586612452565b5b60006125958482850161255c565b91505092915050565b600080fd5b600080fd5b6000601f19601f8301169050919050565b7f4e487b7100000000000000000000000000000000000000000000000000000000600052604160045260246000fd5b6125f1826125a8565b810181811067ffffffffffffffff821117156126105761260f6125b9565b5b80604052505050565b6000612623612448565b905061262f82826125e8565b919050565b600067ffffffffffffffff82111561264f5761264e6125b9565b5b612658826125a8565b9050602081019050919050565b82818337600083830152505050565b600061268761268284612634565b612619565b9050828152602081018484840111156126a3576126a26125a3565b5b6126ae848285612665565b509392505050565b600082601f8301126126cb576126ca61259e565b5b81356126db848260208601612674565b91505092915050565b6000806000606084860312156126fd576126fc612452565b5b600061270b8682870161247d565b935050602084013567ffffffffffffffff81111561272c5761272b612457565b5b612738868287016126b6565b92505060406127498682870161255c565b9150509250925092565b600081519050919050565b600082825260208201905092915050565b6000819050602082019050919050565b612788816124df565b82525050565b600061279a838361277f565b60208301905092915050565b6000602082019050919050565b60006127be82612753565b6127c8818561275e565b93506127d38361276f565b8060005b838110156128045781516127eb888261278e565b97506127f6836127a6565b9250506001810190506127d7565b5085935050505092915050565b6000602082019050818103600083015261282b81846127b3565b905092915050565b6000806040838503121561284a57612849612452565b5b60006128588582860161255c565b925050602083013567ffffffffffffffff81111561287957612878612457565b5b612885858286016126b6565b9150509250929050565b60008115159050919050565b6128a48161288f565b82525050565b60006020820190506128bf600083018461289b565b92915050565b600080604083850312156128dc576128db612452565b5b60006128ea8582860161255c565b92505060206128fb8582860161247d565b9150509250929050565b600081519050919050565b600082825260208201905092915050565b60005b8381101561293f578082015181840152602081019050612924565b60008484015250505050565b600061295682612905565b6129608185612910565b9350612970818560208601612921565b612979816125a8565b840191505092915050565b6000602082019050818103600083015261299e818461294b565b905092915050565b600060a0820190506129bb60008301886124f1565b6129c860208301876124f1565b6129d5604083018661251b565b81810360608301526129e7818561294b565b90506129f6608083018461289b565b9695505050505050565b60006080820190508181036000830152612a1a818761294b565b90508181036020830152612a2e818661294b565b9050612a3d60408301856124f1565b8181036060830152612a4f818461294b565b905095945050505050565b6000608082019050612a6f60008301876124f1565b612a7c60208301866124f1565b8181036040830152612a8e818561294b565b9050612a9d606083018461289b565b95945050505050565b60008060408385031215612abd57612abc612452565b5b6000612acb8582860161255c565b9250506020612adc8582860161255c565b9150509250929050565b60008060008060008060c08789031215612b0357612b02612452565b5b6000612b1189828a0161255c565b965050602087013567ffffffffffffffff811115612b3257612b31612457565b5b612b3e89828a016126b6565b9550506040612b4f89828a0161247d565b945050606087013567ffffffffffffffff811115612b7057612b6f612457565b5b612b7c89828a016126b6565b935050608087013567ffffffffffffffff811115612b9d57612b9c612457565b5b612ba989828a016126b6565b92505060a087013567ffffffffffffffff811115612bca57612bc9612457565b5b612bd689828a016126b6565b9150509295509295509295565b600060c0820190508181036000830152612bfd818961294b565b9050612c0c602083018861251b565b8181036040830152612c1e818761294b565b9050612c2d60608301866124f1565b8181036080830152612c3f818561294b565b905081810360a0830152612c53818461294b565b9050979650505050505050565b60008060008060808587031215612c7a57612c79612452565b5b6000612c888782880161255c565b945050602085013567ffffffffffffffff811115612ca957612ca8612457565b5b612cb5878288016126b6565b935050604085013567ffffffffffffffff811115612cd657612cd5612457565b5b612ce2878288016126b6565b925050606085013567ffffffffffffffff811115612d0357612d02612457565b5b612d0f878288016126b6565b91505092959194509250565b7f43616c6c6572206973206e6f7420617574686f72697a656420746f207375626d60008201527f6974206d61726b736865657420666f7220746869732073747564656e74000000602082015250565b6000612d77603d83612910565b9150612d8282612d1b565b604082019050919050565b60006020820190508181036000830152612da681612d6a565b9050919050565b7f496e76616c69642073656d6573746572206e756d626572000000000000000000600082015250565b6000612de3601783612910565b9150612dee82612dad565b602082019050919050565b60006020820190508181036000830152612e1281612dd6565b9050919050565b7f4d61726b736865657420616c7265616479207375626d697474656420666f722060008201527f746869732073656d657374657200000000000000000000000000000000000000602082015250565b6000612e75602d83612910565b9150612e8082612e19565b604082019050919050565b60006020820190508181036000830152612ea481612e68565b9050919050565b7f4e487b7100000000000000000000000000000000000000000000000000000000600052602260045260246000fd5b60006002820490506001821680612ef257607f821691505b602082108103612f0557612f04612eab565b5b50919050565b60008190508160005260206000209050919050565b60006020601f8301049050919050565b600082821b905092915050565b600060088302612f6d7fffffffffffffffffffffffffffffffffffffffffffffffffffffffffffffffff82612f30565b612f778683612f30565b95508019841693508086168417925050509392505050565b6000819050919050565b6000612fb4612faf612faa8461245c565b612f8f565b61245c565b9050919050565b6000819050919050565b612fce83612f99565b612fe2612fda82612fbb565b848454612f3d565b825550505050565b600090565b612ff7612fea565b613002818484612fc5565b505050565b5b818110156130265761301b600082612fef565b600181019050613008565b5050565b601f82111561306b5761303c81612f0b565b61304584612f20565b81016020851015613054578190505b61306861306085612f20565b830182613007565b50505b505050565b600082821c905092915050565b600061308e60001984600802613070565b1980831691505092915050565b60006130a7838361307d565b9150826002028217905092915050565b6130c082612905565b67ffffffffffffffff8111156130d9576130d86125b9565b5b6130e38254612eda565b6130ee82828561302a565b600060209050601f831160018114613121576000841561310f578287015190505b613119858261309b565b865550613181565b601f19841661312f86612f0b565b60005b8281101561315757848901518255600182019150602085019450602081019050613132565b868310156131745784890151613170601f89168261307d565b8355505b6001600288020188555050505b505050505050565b600060408201905061319e600083018561251b565b81810360208301526131b0818461294b565b90509392505050565b600081905092915050565b60006131cf82612905565b6131d981856131b9565b93506131e9818560208601612921565b80840191505092915050565b600061320182846131c4565b915081905092915050565b6000815461321981612eda565b61322381866131b9565b9450600182166000811461323e576001811461325357613286565b60ff1983168652811515820286019350613286565b61325c85612f0b565b60005b8381101561327e5781548189015260018201915060208101905061325f565b838801955050505b50505092915050565b600061329b828461320c565b915081905092915050565b7f496e76616c6964206372656469747320616d6f756e7400000000000000000000600082015250565b60006132dc601683612910565b91506132e7826132a6565b602082019050919050565b6000602082019050818103600083015261330b816132cf565b9050919050565b7f4e6f206d61726b7368656574207375626d697474656420666f7220746865207360008201527f747564656e740000000000000000000000000000000000000000000000000000602082015250565b600061336e602683612910565b915061337982613312565b604082019050919050565b6000602082019050818103600083015261339d81613361565b9050919050565b7f4e487b7100000000000000000000000000000000000000000000000000000000600052601160045260246000fd5b60006133de8261245c565b91506133e98361245c565b9250828201905080821115613401576134006133a4565b5b92915050565b7f556e617574686f72697a65642061636365737300000000000000000000000000600082015250565b600061343d601383612910565b915061344882613407565b602082019050919050565b6000602082019050818103600083015261346c81613430565b9050919050565b7f496e73756666696369656e74206372656469747320666f72207472616e73666560008201527f7200000000000000000000000000000000000000000000000000000000000000602082015250565b60006134cf602183612910565b91506134da82613473565b604082019050919050565b600060208201905081810360008301526134fe816134c2565b9050919050565b7f416c726561647920656e726f6c6c656420696e20746865206e657720696e737460008201527f6974757465000000000000000000000000000000000000000000000000000000602082015250565b6000613561602583612910565b915061356c82613505565b604082019050919050565b6000602082019050818103600083015261359081613554565b9050919050565b60006135a28261245c565b91506135ad8361245c565b92508282039050818111156135c5576135c46133a4565b5b92915050565b7f53747564656e74206e6f74207265676973746572656400000000000000000000600082015250565b6000613601601683612910565b915061360c826135cb565b602082019050919050565b60006020820190508181036000830152613630816135f4565b9050919050565b7f4f6e6c7920696e737469747574652063616e206164642074686972642d70617260008201527f7479000000000000000000000000000000000000000000000000000000000000602082015250565b6000613693602283612910565b915061369e82613637565b604082019050919050565b600060208201905081810360008301526136c281613686565b9050919050565b7f54686972642d706172747920616c726561647920766572696669656400000000600082015250565b60006136ff601c83612910565b915061370a826136c9565b602082019050919050565b6000602082019050818103600083015261372e816136f2565b9050919050565b7f496e7374697475746520616c7265616479207265676973746572656400000000600082015250565b600061376b601c83612910565b915061377682613735565b602082019050919050565b6000602082019050818103600083015261379a8161375e565b9050919050565b60006137ac8261245c565b91507fffffffffffffffffffffffffffffffffffffffffffffffffffffffffffffffff82036137de576137dd6133a4565b5b60018201905091905056fea2646970667358221220a7642b9610b29549dc2ae5b1043d3f73f6173aa03e350ec1f540bf5e3d95fb1164736f6c63430008130033",
  "immutableReferences": {},
  "source": "// SPDX-License-Identifier: MIT\r\npragma solidity ^0.8.0;\r\n\r\ncontract CreditTransfer {\r\n    struct Student {\r\n        string name;\r\n        uint age;\r\n        string email;\r\n        address walletAddress;\r\n        string abcId;\r\n        string password;\r\n    }\r\n\r\n    struct Institute {\r\n        string name;\r\n        string location;\r\n        address walletAddress;\r\n        mapping(address => bool) verifiedThirdParties; // Mapping to store verified third-party addresses\r\n        address[] enrolledStudents; // Array to store enrolled students\r\n        string password;\r\n    }\r\n\r\n    struct Marksheet {\r\n        address institute;\r\n        address student;\r\n        uint semesterNumber;\r\n        string content;\r\n        bool creditsGiven; // New field to track credits\r\n    }\r\n\r\n\r\n    struct SemesterCompletion {\r\n        address student;\r\n        uint semesterNumber;\r\n        uint completionTimestamp;\r\n        bool verified;\r\n    }\r\n\r\n    mapping(address => Institute) public institutes; // Mapping to store Institute details\r\n    mapping(address => Student) public students; // Mapping to store Student details\r\n    mapping(address => address) public studentInstitute; // Mapping to store student's current institute\r\n    mapping(address => string) public studentABCIds; // Mapping to store ABC ID of students\r\n    mapping(address => uint) public studentCredits; // Mapping to store credits for each student\r\n    mapping(uint => Marksheet) public markSheets;\r\n\r\n    event SemesterCompleted(address indexed student, uint semesterNumber, uint completionTimestamp, bool verified);\r\n    event MarksheetSubmitted(address indexed institute, address indexed student, uint semesterNumber, string content);\r\n    event AdminApproval(uint semesterNumber, address indexed student);\r\n    event TransferCredits(address indexed student, uint credits);\r\n    event ThirdPartyVerified(address indexed institute, address indexed thirdParty);\r\n\r\n    uint public minCreditsRequiredForTransfer = 60; // Minimum credits required for transfer\r\n    address[] public instituteAddresses; // Array to store institute addresses\r\n\r\n    function setMinCreditsRequiredForTransfer(uint _minCredits) public {\r\n        minCreditsRequiredForTransfer = _minCredits;\r\n    }\r\n\r\n    function setStudentDetails(address _student, string memory _name, uint _age, string memory _email, string memory _abcId, string memory _password) public {\r\n        students[_student] = Student(_name, _age, _email, _student, _abcId, _password);\r\n    }\r\n\r\n    function setInstituteDetails(address _institute, string memory _name, string memory _location, string memory _password) public {\r\n        require(institutes[_institute].walletAddress == address(0), \"Institute already registered\");\r\n\r\n        Institute storage newInstitute = institutes[_institute];\r\n        newInstitute.name = _name;\r\n        newInstitute.location = _location;\r\n        newInstitute.walletAddress = _institute;\r\n        newInstitute.password = _password;\r\n        instituteAddresses.push(_institute); // Add new institute address to array\r\n    }\r\n\r\n    function getInstituteCount() public view returns (uint) {\r\n        return instituteAddresses.length;\r\n    }\r\n\r\n    function getInstituteAddresses() public view returns (address[] memory) {\r\n        return instituteAddresses;\r\n    }\r\n\r\n    function enrollStudent(address _institute, address _student) public {\r\n        require(students[_student].walletAddress != address(0), \"Student not registered\");\r\n\r\n        Institute storage institute = institutes[_institute];\r\n        institute.enrolledStudents.push(_student);\r\n        studentInstitute[_student] = _institute;\r\n    }\r\n\r\n    function getEnrolledStudents(address _institute) public view returns (address[] memory) {\r\n        Institute storage institute = institutes[_institute];\r\n        return institute.enrolledStudents;\r\n    }\r\n\r\n    function addVerifiedThirdParty(address _institute, address _thirdParty) public {\r\n        require(institutes[_institute].walletAddress == msg.sender, \"Only institute can add third-party\");\r\n        require(!institutes[_institute].verifiedThirdParties[_thirdParty], \"Third-party already verified\");\r\n\r\n        institutes[_institute].verifiedThirdParties[_thirdParty] = true;\r\n        emit ThirdPartyVerified(_institute, _thirdParty);\r\n    }\r\n\r\n    function giveCredits(address _student, uint _credits) public {\r\n        require(_credits > 0, \"Invalid credits amount\");\r\n\r\n        // Get the latest submitted marksheet for the student\r\n        Marksheet memory latestMarksheet = markSheets[getLatestSubmittedSemester(_student)];\r\n\r\n        // Check if the marksheet exists and is verified\r\n        require(latestMarksheet.institute != address(0), \"No marksheet submitted for the student\");\r\n\r\n        // Transfer the specified credits to the student\r\n        studentCredits[_student] += _credits;\r\n\r\n        // Emit an event indicating the transfer of credits\r\n        emit TransferCredits(_student, _credits);\r\n    }\r\n\r\n    function getLatestSubmittedSemester(address _student) internal view returns (uint) {\r\n        uint latestSemester = 0;\r\n        for (uint i = 1; i <= 8; i++) {\r\n            if (markSheets[i].student == _student && markSheets[i].institute != address(0)) {\r\n                latestSemester = i;\r\n            }\r\n        }\r\n        return latestSemester;\r\n    }\r\n\r\n    function submitMarksheet(uint _semesterNumber, string memory _content, address _student) public {\r\n        address instituteAddress = msg.sender;\r\n        address enrolledInstitute = studentInstitute[_student];\r\n\r\n        require(instituteAddress == enrolledInstitute, \"Caller is not authorized to submit marksheet for this student\");\r\n        require(_semesterNumber >= 1 && _semesterNumber <= 8, \"Invalid semester number\");\r\n\r\n        require(markSheets[_semesterNumber].institute == address(0), \"Marksheet already submitted for this semester\");\r\n\r\n        markSheets[_semesterNumber] = Marksheet(instituteAddress, _student, _semesterNumber, _content, false);\r\n\r\n        emit MarksheetSubmitted(instituteAddress, _student, _semesterNumber, _content);\r\n    }\r\n\r\n    function getMarksheet(uint _semesterNumber) public view returns (address, address, string memory, bool) {\r\n        Marksheet memory marksheet = markSheets[_semesterNumber];\r\n        address studentAddress = msg.sender;\r\n\r\n        require(studentAddress == marksheet.student || studentAddress == marksheet.institute, \"Unauthorized access\");\r\n\r\n        return (marksheet.institute, marksheet.student, marksheet.content, marksheet.creditsGiven);\r\n    }\r\n\r\n    function creditsGivenForMarksheet(uint _semesterNumber) public view returns (bool) {\r\n        Marksheet memory marksheet = markSheets[_semesterNumber];\r\n\r\n        return marksheet.creditsGiven;\r\n    }\r\n\r\n\r\n    function transferInstitute(address _newInstitute) public {\r\n        address studentAddress = msg.sender;\r\n        uint totalCredits = studentCredits[studentAddress];\r\n        \r\n        require(totalCredits >= minCreditsRequiredForTransfer, \"Insufficient credits for transfer\");\r\n        require(studentInstitute[studentAddress] != _newInstitute, \"Already enrolled in the new institute\");\r\n\r\n        studentInstitute[studentAddress] = _newInstitute;\r\n\r\n        studentCredits[studentAddress] -= totalCredits; // Deduct credits upon transfer\r\n        emit TransferCredits(studentAddress, totalCredits); // Emit an event indicating the transfer of credits\r\n    }\r\n\r\n    function getTotalCredits(address _student) public view returns (uint) {\r\n        return studentCredits[_student];\r\n    }\r\n\r\n    function studentLogin(address _student, string memory _password) public view returns (bool) {\r\n        return keccak256(abi.encodePacked(students[_student].password)) == keccak256(abi.encodePacked(_password));\r\n    }\r\n\r\n    function instituteLogin(address _institute, string memory _password) public view returns (bool) {\r\n        return keccak256(abi.encodePacked(institutes[_institute].password)) == keccak256(abi.encodePacked(_password));\r\n    }\r\n}\r\n",
  "sourcePath": "C:\\Users\\adity\\Desktop\\Coding\\Major Project\\contracts\\CreditTransfer.sol",
  "compiler": {
    "name": "solc",
    "version": "0.8.19+commit.7dd6d404.Emscripten.clang"
  },
  "schemaVersion": "3.4.16",
  "updatedAt": "2024-05-02T14:14:05.115Z",
  "networkType": "ethereum",
  "devdoc": {
    "kind": "dev",
    "methods": {},
    "version": 1
  },
  "userdoc": {
    "kind": "user",
    "methods": {},
    "version": 1
  }
}